:1000000014C1000043C1000041C100003FC1000015
:100010003DC100003BC1000039C1000037C10000F4
:1000200035C1000033C1000031C100002FC1000004
:100030002DC100002BC1000029C1000027C1000014
:1000400025C100000C94FA0821C100001FC1000066
:100050001DC100001BC1000019C10000A6C50000A1
:1000600015C1000029C30000FEC200000FC100003E
:100070000DC100000BC1000009C1000007C1000054
:100080000C94CD0803C1000001C10000FFC00000B6
:10009000FDC00000FBC00000F9C00000D0C500009A
:1000A000F5C00000F3C000000C94A008EFC00000F1
:1000B000EDC00000EBC00000E9C000000C94730824
:1000C000E5C00000E3C00000E1C00000DFC00000A8
:1000D000DDC00000DBC00000D9C00000D7C00000B8
:1000E000D5C0000061046404530457045B049B04FE
:1000F00068046C04720476047A048004840488041E
:100100009B048E0492049604000020002300260025
:1001100029002C002F00320000010000030106011D
:10012000090105050505070508080808020202027D
:100130000A0A080804040404010101010101010183
:100140000303030303030303040707070C0C0C0C4E
:100150000C0C0C0C02020202060606060606060637
:100160000B0B0B0B0B0B0B0B0102102020080810C4
:100170002040102040800201020108040201010217
:1001800004081020408080402010080402018004F0
:10019000020180402010080402010804020101024B
:1001A0000408102040800102040810204080000054
:1001B0002100240027002A002D0030003300010117
:1001C0000000040107010A010000220025002800A8
:1001D0002B002E003100340002010000050108014F
:1001E0000B0100000A0B02090C0D0E0807030401A5
:1001F00000000000000000000000000000000000FF
:1002000000000000000000000000000000001211CB
:1002100010000000000000000000000000000000CE
:100220000000000000000000BB0911241FBECFEF3A
:10023000D1E2DEBFCDBF00E00CBF12E0A0E0B2E033
:10024000EAE2F8E100E00BBF02C007900D92AE3584
:10025000B107D9F725E0AEE5B2E001C01D92AB3D94
:10026000B207E1F711E0C5E1D1E000E006C0219757
:100270000109802FFE010E94070CC431D10780E0E4
:100280000807A9F70E943F0A0C94130CB9CEFC0191
:100290008081823071F018F4813031F0089583301C
:1002A00069F0843081F008951092890010928800DE
:1002B000089510929D0010929C0008951092A9003C
:1002C0001092A80008951092990010929800089535
:1002D000CF92DF92EF92FF920F931F93CF93DF9312
:1002E0006C017A018B01C0E0D0E0CE15DF0589F00A
:1002F000D8016D918D01D601ED91FC910190F081B5
:10030000E02DC6011995892B11F47E0102C02196BA
:10031000ECCFC701DF91CF911F910F91FF90EF902C
:10032000DF90CF900895FC01538D448D252F30E050
:10033000842F90E0821B930B541710F0CF960895F2
:1003400001970895FC01918D828D981761F0828D3F
:10035000DF01A80FB11D5D968C91928D9F5F9F73F9
:10036000928F90E008958FEF9FEF0895FC01918D9B
:10037000828D981731F0828DE80FF11D858D90E008
:1003800008958FEF9FEF0895FC01918D228D892FA5
:1003900090E0805C9F4F821B91098F73992708958D
:1003A00080E692E0F1DF21E0892B09F420E0822F42
:1003B0000895FC01848DDF01A80FB11DA35ABF4F22
:1003C0002C91848D90E001968F739927848FA68954
:1003D000B7892C93A089B1898C9180648C93938D7B
:1003E000848D981306C00288F389E02D80818F7D6B
:1003F00080830895EF92FF920F931F93CF93DF9323
:10040000EC0181E0888F9B8D8C8D981305C0E88965
:10041000F989808185FD23C0F62E0B8D10E00F5FDA
:100420001F4F0F731127E02E8C8DE8120BC00FB6F3
:1004300007FCFACFE889F989808185FFF5CFCE01E5
:10044000B8DFF2CF8B8DFE01E80FF11DE35AFF4FAD
:10045000F0820B8FEA89FB898081806207C0EE8978
:10046000FF896083E889F98980818064808381E0E5
:1004700090E0DF91CF911F910F91FF90EF90089541
:10048000CF93DF93EC01888D8823C1F0EA89FB8943
:10049000808185FD05C0A889B9898C9186FD0EC033
:1004A0000FB607FCF5CF808185FFF2CFA889B98907
:1004B0008C9185FFEDCFCE017CDFE8CFDF91CF912E
:1004C0000895009761F0FC0101900020E9F7319751
:1004D000AF01481B590BBC0180E692E0F9CE80E0E9
:1004E00090E008958F929F92AF92BF920F931F93C7
:1004F000CF93DF93CDB7DEB7A1970FB6F894DEBFE9
:100500000FBECDBF19A2423008F44AE08E010F5D44
:100510001F4F842E912CA12CB12CA50194010E9477
:10052000D90BE62FB901CA0101501109EA3014F4C0
:10053000E05D01C0E95CD801EC93232B242B252B33
:1005400061F7C801BEDFA1960FB6F894DEBF0FBEFB
:10055000CDBFDF91CF911F910F91BF90AF909F9032
:100560008F900895AECFCF93DF9360E08CE07BD186
:1005700060E088E078D1C7E0D0E060E084E073D14B
:1005800080915E0290E00C2E02C0959587950A94AA
:10059000E2F780FF02C061E001C060E088E063D163
:1005A00061E084E060D1219740F761E08CE0DF9169
:1005B000CF9159C1FC018081823049F018F481301B
:1005C00079F00895833031F0843039F0089544E0B3
:1005D00081E008C047E085E005C046E080E002C059
:1005E00043E082E021E030E0B90102C0660F771FEE
:1005F0008A95E2F7CB0101C0220F4A95EAF7822BD8
:10060000809590915E02892380935E02ACCF0F9318
:100610001F9390E0FC01E859FE4F6491FC01EE5DF0
:10062000FE4FE491F0E0EE0FFF1FE85FFE4F859173
:10063000949100E412E42FE030E040E057D66115D9
:1006400071058105910549F0DC01CB010196A11DE1
:10065000B11DBC01CD019F7003C060E070E0CB0113
:100660001F910F9108951F920F920FB60F921124B0
:100670000BB60F922F933F934F935F936F937F939C
:100680008F939F93AF93BF93EF93FF9380E692E096
:1006900090DEFF91EF91BF91AF919F918F917F91EC
:1006A0006F915F914F913F912F910F900BBE0F90E3
:1006B0000FBE0F901F9018951F920F920FB60F92BA
:1006C00011240BB60F922F938F939F93EF93FF9369
:1006D000E0917002F09171028081E0917602F091D8
:1006E000770282FD12C09081809179028F5F8F73B3
:1006F00020917A02821751F0E0917902F0E0E05AFD
:10070000FD4F958F8093790201C08081FF91EF9119
:100710009F918F912F910F900BBE0F900FBE0F9056
:100720001F90189580E090E0892B19F039DE811137
:1007300025C080E090E0892B41F080E090E0892B9B
:1007400021F00E94000081111CC080E090E0892B04
:1007500041F080E090E0892B21F00E94000081119F
:1007600013C080E090E0892BA1F080E090E0892B1D
:1007700081F00E94000081110AC008950E940000CB
:10078000D8CF0E940000E1CF0E940000EACF0C9475
:100790000000089585ED8093BC008091BC0084FD2D
:1007A000FCCF1092AC05089540918605262F30E0CD
:1007B000240F311D21323105DCF42091AC052430A9
:1007C000C9F4FC0180E090E0861758F4309186056A
:1007D0002191DC01AC59BA4FA30FB11D2C930196A6
:1007E000F3CF80918605680F6093860580E00895B9
:1007F00081E0089582E0089508958FEF9FEF0895B6
:100800008FEF9FEF08958091630590E0919581951A
:1008100091090895CF93DF931F921F92CDB7DEB752
:10082000CB01642F49835A83BFDF4981842F5A81CA
:10083000952F0F900F90DF91CF910895CF93DF9375
:100840001F92CDB7DEB7698361E0CE010196ACDFC0
:1008500081E090E00F90DF91CF910895089580E0BE
:1008600090E00895DCD7362F90E0FC01EE51FE4F6A
:100870004491FC01E859FE4F2491FC01EE5DFE4FCE
:100880009491992309F46AC0442309F454C050E0B8
:10089000FA013197E231F10508F04DC08827EE5892
:1008A000FF4F8F4FB4C7809180008F7707C0809132
:1008B00080008F7D03C080918000877F80938000BF
:1008C0003AC084B58F7702C084B58F7D84BD33C0B4
:1008D0008091B0008F7703C08091B0008F7D8093AE
:1008E000B00029C0809190008F7707C08091900060
:1008F0008F7D03C080919000877F809390001BC004
:100900008091A0008F7707C08091A0008F7D03C0E9
:100910008091A000877F8093A0000DC0809120016E
:100920008F7707C0809120018F7D03C080912001C7
:10093000877F80932001E92FF0E0EE0FFF1FE8533F
:10094000FE4FA591B4918FB7F894EC91311103C08B
:1009500020952E2301C02E2B2C938FBF0895CF926C
:10096000DF92EF92FF920F931F93CF93DF936C016F
:100970008B017A01EC01C253DB4F888187FF04C0F1
:10098000FB011182108224C08CE08C9D90018D9D12
:10099000300D11248881A901480F511D87FD5A95FA
:1009A0008091D20490E04817590794F48881A901F6
:1009B000480F511D87FD5A95CA01FA01EE0FFF1F1E
:1009C0008E0F9F1FFC01ED52FB4F808186FD19C0E9
:1009D00088818F5F88838CE08C9D90018D9D300D88
:1009E00011248881A901480F511D87FD5A958091D6
:1009F000D20490E048175907B4F488818C303CF158
:100A000012C08881280F311D87FD3A95F901EE0F3C
:100A1000FF1F2E0F3F1FF901ED52FB4F808160E059
:100A20008F7321DFD5CFF8018081918104968034C6
:100A30009C4918F480E49CE904C0F801808191810C
:100A40000496F701918380838FEF888344C0F80177
:100A5000408151818881B901680F711D87FD7A95A8
:100A6000CB01FB01EE0FFF1F8E0F9F1FFC01ED520C
:100A7000FB4F81819281840F951FF70191838083C1
:100A80008881A901480F511D87FD5A95CA01FA01B5
:100A9000EE0FFF1F8E0F9F1FFC01ED52FB4F808159
:100AA00086FF19C08881280F311D87FD3A95F9010D
:100AB000EE0FFF1F2E0F3F1FF901ED52FB4F8081FC
:100AC00061E08F73DF91CF911F910F91FF90EF90B5
:100AD000DF90CF90C8CEDF91CF911F910F91FF9003
:100AE000EF90DF90CF900895CF93DF9390E0FC01DB
:100AF000E859FE4F2491FC01EE5DFE4F849188235E
:100B000061F190E0880F991FFC01E255FE4FC591FD
:100B1000D491FC01E853FE4FA591B491611109C035
:100B20009FB7F8948881209582238883EC912E23A7
:100B30000BC0623061F49FB7F8943881822F8095A2
:100B400083238883EC912E2B2C939FBF06C08FB7F5
:100B5000F894E8812E2B28838FBFDF91CF910895E1
:100B60003FB7F8948091D7059091D805A091D90509
:100B7000B091DA0526B5A89B05C02F3F19F0019664
:100B8000A11DB11D3FBFBA2FA92F982F8827820F13
:100B9000911DA11DB11DBC01CD0142E0660F771F63
:100BA000881F991F4A95D1F708951F920F920FB68B
:100BB0000F9211242F933F938F939F93AF93BF93E3
:100BC0008091D3059091D405A091D505B091D6051B
:100BD0003091D20523E0230F2D3720F40196A11D7B
:100BE000B11D05C026E8230F0296A11DB11D20935B
:100BF000D2058093D3059093D405A093D505B093E7
:100C0000D6058091D7059091D805A091D905B091CE
:100C1000DA050196A11DB11D8093D7059093D805E3
:100C2000A093D905B093DA05BF91AF919F918F91B1
:100C30003F912F910F900FBE0F901F9018951F920C
:100C40000F920FB60F9211240BB60F922F933F9372
:100C50004F935F936F937F938F939F93AF93BF93C4
:100C6000EF93FF938091B900887F803609F49CC090
:100C700068F5883209F45BC090F4803109F454C0FF
:100C800038F4882309F4F6C0883009F44DC0F5C063
:100C9000883109F44CC0803209F45DC0EEC0803464
:100CA00009F468C048F4803309F455C0883309F06A
:100CB000E4C08093AB05D8C0803509F44FC08835B7
:100CC00009F45DC0883409F0D8C0D6C0883909F469
:100CD000C7C0A8F4883709F467C038F4883609F427
:100CE00063C0803709F460C0C8C0883809F4B8C050
:100CF000803909F45FC0803809F0BFC05BC0803B19
:100D000009F486C038F4803A09F466C0883A09F4D8
:100D10007FC0B3C0803C09F4A7C0883C09F4A4C0DC
:100D2000883B09F48AC0A9C08091D10510C0909178
:100D3000D0058091CF05981770F5E091D00581E03E
:100D40008E0F8093D005F0E0E155FA4F80818093BB
:100D5000BB0085EC86C08093AB058EC0E091D005CA
:100D600081E08E0F8093D0058091BB00F0E0E155CB
:100D7000FA4F80839091D0058091CF056EC0E091AD
:100D8000D00581E08E0F8093D0058091BB00F0E00C
:100D9000E155FA4F80838091AE0581116DC081E0ED
:100DA0008093AD0584EA61C083E08093AC05109226
:100DB000AA05CFCF8091AA05803208F051C0E091FA
:100DC000AA0581E08E0F8093AA058091BB00F0E018
:100DD000E657FA4F8083BDCF85EC8093BC0010921C
:100DE000AC058091AA05803230F4E091AA05F0E0CC
:100DF000E657FA4F10826091AA0570E0E0918805ED
:100E0000F09189058AE895E019951092AA0535C0F8
:100E100084E08093AC051092870510928605E091DE
:100E20008405F0918505199580918605811105C08D
:100E300081E08093860510926405E091870581E04A
:100E40008E0F80938705F0E0EC59FA4F80818093F4
:100E5000BB009091870580918605981708F479CF9B
:100E600085E88093BC0009C085EC8093BC0010929B
:100E7000AC0503C01092AB058DDCFF91EF91BF91E3
:100E8000AF919F918F917F916F915F914F913F9122
:100E90002F910F900BBE0F900FBE0F901F901895C3
:100EA000CF93DF93D62FC42FFC016083418361E091
:100EB0008CE01ADE61E087E017DE61E088E014DE96
:100EC00061E084E011DE10925E024DDB60E087E0BD
:100ED000CADCD230A9F1C8F4D13009F05FC08091EA
:100EE0005E02837F80935E023EDB8091800081689A
:100EF00080938000C770C860C09381001092890001
:100F00001092880061E08BE046C0D33079F1D43094
:100F100009F044C080915E028E7B80935E0223DBE9
:100F200080919000816880939000C770C860C093E2
:100F30009100109299001092980061E085E02BC01A
:100F400080915E028D7E80935E020DDB8091900029
:100F5000896080939000C770C860C0939100109220
:100F60009D0010929C0061E083E015C080915E02BC
:100F70008F7580935E02F7DA8091A000816880937C
:100F8000A000C770C860C093A1001092A900109281
:100F9000A80061E086E0DF91CF91A6CDDF91CF91EF
:100FA00008951F93CF93DF93EC01162F8881803330
:100FB00008F04CC061E0812F97DD8881E82FF0E0D8
:100FC0009F01220F331FE20FF31FED52FB4F1F73E0
:100FD0009081907C192B108319821A826CE00BD4BB
:100FE0009CE0899FB001112440E050E09A01260F57
:100FF000371FF901EE0FFF1F2E0F3F1FF901ED52B2
:10100000FB4F908196FD16C04F5F5F4F4C305105EE
:1010100069F7813001F51092800082E080938100B1
:101020001092850010928400B19A80916F008260C6
:1010300080936F00E881F0E0CF01880F991FE80FDF
:10104000F91FED52FB4F8081806480838881DF919E
:10105000CF911F910895823061F410929000809397
:101060009100109295001092940088BB80937100BB
:10107000E1CF833069F41092A00082E08093A10058
:101080001092A5001092A40089BB80937200D2CF69
:101090008111D0CF1092200182E080932101109223
:1010A0002501109224018ABB80937300C3CFFC01F9
:1010B0009091D2049033A0F481E0890F8093D20400
:1010C0009083892F90E0FC01EE0FFF1F8E0F9F1F72
:1010D000FC01ED52FB4F88EB9BE0928381830895E6
:1010E0008FEF808308951F920F920FB60F921124F5
:1010F0000BB60F922F933F934F935F936F937F9312
:101100008F939F93AF93BF93EF93FF9348E251E088
:1011100064E271E080E090E022DCFF91EF91BF910A
:10112000AF919F918F917F916F915F914F913F917F
:101130002F910F900BBE0F900FBE0F901F90189520
:101140001F920F920FB60F9211240BB60F922F938E
:101150003F934F935F936F937F938F939F93AF933F
:10116000BF93EF93FF9348EA50E064EA70E083E0B6
:1011700090E0F5DBFF91EF91BF91AF919F918F913F
:101180007F916F915F914F913F912F910F900BBE87
:101190000F900FBE0F901F9018951F920F920FB6D1
:1011A0000F9211240BB60F922F933F934F935F939F
:1011B0006F937F938F939F93AF93BF93EF93FF931F
:1011C00048E950E064E970E082E090E0C8DBFF911C
:1011D000EF91BF91AF919F918F917F916F915F91AF
:1011E0004F913F912F910F900BBE0F900FBE0F901C
:1011F0001F9018951F920F920FB60F9211240BB6E5
:101200000F922F933F934F935F936F937F938F939F
:101210009F93AF93BF93EF93FF9348E850E064E848
:1012200070E081E090E09BDBFF91EF91BF91AF9187
:101230009F918F917F916F915F914F913F912F91EE
:101240000F900BBE0F900FBE0F901F9018951F931D
:10125000CF93DF93EC01162F60E08AE104DB60E0BE
:101260008BE101DB812FD3D9688361E08AE1FBDA6E
:1012700061E08BE1F8DA812FCAD9698360E08AE105
:10128000F2DA61E08BE1EFDA812FC1D96A83DF9175
:10129000CF911F910895CF93DF9300D0CDB7DEB7E4
:1012A000682FCE010196D3DF29818A812B3A28F05D
:1012B0008B3A18F09B819B3A80F490E0AC01421B82
:1012C0005109453151055CF02B81AC01421B51099C
:1012D00081E04531510524F402C082E001C080E084
:1012E0000F900F900F90DF91CF910895CF92DF92E2
:1012F000EF92FF920F931F93E82FF92F05C0015033
:1013000011092109310961F1908196239417B9F3EC
:1013100005C0015011092109310911F1908196236D
:101320009413F7CFC12CD12CE12CF12C0AC08FEFF4
:10133000C81AD80AE80AF80A0C151D052E053F053B
:1013400079F080818623841791F36C2D7D2D8E2D6D
:101350009F2D1F910F91FF90EF90DF90CF900895F8
:1013600060E070E080E090E01F910F91FF90EF90BF
:10137000DF90CF900895CF93DF93E0E6F2E0138201
:10138000128288EE93E0A0E0B0E084839583A68388
:10139000B7832BE032E03183208325EC30E03587C2
:1013A000248724EC30E03787268720EC30E0318B2F
:1013B000208B21EC30E0338B228B22EC30E0358B1C
:1013C000248B26EC30E0378B268B118E128E138EF9
:1013D000148EEDEFF2E01382128284839583A6834C
:1013E000B7838DE192E09183808310925F02EAE1FE
:1013F000F3E084EB91E0DF019C011D92215030402D
:10140000E1F78BE193E0909361048093600482E6BE
:1014100094E090936A0480936904C3E0D2E042E0D0
:101420006A8189E093E03CDD42E06B818BE093E0F0
:1014300037DD42E068818DE093E032DD42E0698192
:101440008FE093E02DDD81E193E031DE84E193E0F4
:101450002EDE87E193E02BDEC0E0D2E0688170E011
:1014600081E193E09EDD698170E084E193E099DDA4
:101470006A8170E087E193E0DF91CF9192CDCF93C5
:10148000DF9300D000D0CDB7DEB7789484B582600A
:1014900084BD84B5816084BD85B5826085BD85B518
:1014A000816085BD80916E00816080936E00109296
:1014B0008100809181008260809381008091810011
:1014C00081608093810080918000816080938000A2
:1014D0008091B10084608093B1008091B000816000
:1014E0008093B00080919100826080939100809100
:1014F0009100816080939100809190008160809341
:1015000090008091A10082608093A1008091A10051
:1015100081608093A1008091A00081608093A000F1
:10152000809121018260809321018091210181605D
:10153000809321018091200181608093200180911E
:101540007A00846080937A0080917A008260809330
:101550007A0080917A00816080937A0080917A008D
:10156000806880937A001092C10061E088E1BCDA63
:1015700061E089E1B9DA61E08AE1B6DA61E08BE144
:10158000B3DA60E08CE1B0DA60E08DE1ADDA61E021
:1015900088E169D960E089E166D960E08EE1A4DA8A
:1015A00060E08FE1A1DA60E080E29EDA60E081E253
:1015B0009BDA60E082E298DA8DE093E00E944701D6
:1015C0008DE093E00E94DA028FE093E00E944701F1
:1015D0008FE093E00E94DA0289E093E00E944701E5
:1015E00089E093E00E94DA028BE093E00E944701D9
:1015F0008BE093E00E94DA02E0917002F0917102B8
:1016000082E08083E0916C02F0916D021082E091A3
:101610006E02F0916F028FEC808310927802E0915D
:101620007402F091750286E08083E0917202F0917D
:101630007302808180618083E0917202F091730275
:10164000808188608083E0917202F09173028081D2
:1016500080688083E0917202F091730280818F7DB7
:1016600080838BE292E00E94610284E492E00E9417
:1016700061026CE1CE010496EADD6DE1CE010196D6
:10168000E6DD8CE190E007DEF82E8DE190E003DEF0
:10169000E82E87E492E00E94B202698170E080E067
:1016A00090E04AE00E9472028FE492E00E94B2024F
:1016B0006A8170E080E090E04AE00E9472028FE46C
:1016C00092E00E94B2026B8170E080E090E04AE01C
:1016D0000E94720282E592E00E94B2026E2D70E0DA
:1016E00080E090E04AE00E94720284E492E00E946E
:1016F000610286E592E00E94B2026C8170E080E0B7
:1017000090E04AE00E9472028FE492E00E94B202EE
:101710006D8170E080E090E04AE00E9472028FE408
:1017200092E00E94B2026E8170E080E090E04AE0B8
:101730000E94720282E592E00E94B2026F2D70E078
:1017400080E090E04AE00E94720284E492E00E940D
:10175000610282E492E00E94610284E492E00E94CD
:101760006102FED94B015C018CE2C82EDD24D394CA
:10177000E12CF12CF5D9DC01CB0188199909AA09D2
:10178000BB09883E9340A105B10558F021E0C21A7B
:10179000D108E108F10888EE880E83E0981EA11CAC
:1017A000B11CC114D104E104F10421F70E94920399
:1017B00060CFA1E21A2EAA1BBB1BFD010DC0AA1F00
:1017C000BB1FEE1FFF1FA217B307E407F50720F0AA
:1017D000A21BB30BE40BF50B661F771F881F991F25
:1017E0001A9469F760957095809590959B01AC016E
:1017F000BD01CF010895991B79E004C0991F961788
:1018000008F0961B881F7A95C9F780950895EE0F0A
:10181000FF1F881F8BBF0790F691E02D199481E080
:0A18200090E0F89400C0F894FFCFA8
:10182A00090A020102030400000000FA0168019398
:10183A00014002C401A201B601000000001E040A10
:10184A00042F04FC0303040004FD03737465617030
:10185A00682F7265736375652D6C696E652F4F42CB
:10186A00520A0A000D0A0052696768743A20002C6D
:0E187A002000207C20004C6566743A2020007F
:00000001FF
