:1000000015C1000044C1000042C1000040C1000011
:100010003EC100003CC100003AC1000038C10000F0
:1000200036C1000034C1000032C1000030C1000000
:100030002EC100002CC100002AC1000028C1000010
:1000400026C10000ECC7000022C1000020C1000052
:100050001EC100001CC100001AC10000BBC400008A
:1000600016C100006EC2000043C2000010C10000B3
:100070000EC100000CC100000AC1000008C1000050
:10008000A1C7000004C1000002C1000000C10000BF
:10009000FEC00000FCC00000FAC00000E5C4000083
:1000A000F6C00000F4C0000060C70000F0C000000F
:1000B000EEC00000ECC00000EAC0000029C700004C
:1000C000E6C00000E4C00000E2C00000E0C00000A4
:1000D000DEC00000DCC00000DAC00000D8C00000B4
:1000E000D6C000004E045104400444044A0488046D
:1000F000550459045F04630467046D0471047504B6
:1001000088047B047F04830400002200250028006B
:100110002B002E003100340002010000050108010F
:100120000B0100000A0B02090C0D0E080703040165
:1001300000000000000000000000000000000000BF
:10014000000000000000000000000000000012118C
:10015000100000000000000000000000000000008F
:100160000000000000000000000021002400270023
:100170002A002D00300033000101000004010701B6
:100180000A01000020002300260029002C002F0077
:100190003200000100000301060109010505050503
:1001A000070508080808020202020A0A08080404EF
:1001B000040401010101010101010303030303031D
:1001C0000303040707070C0C0C0C0C0C0C0C0202AC
:1001D000020206060606060606060B0B0B0B0B0BA9
:1001E0000B0B010210202008081020401020408036
:1001F00002010201080402010102040810204080EB
:100200008040201008040201800402018040201078
:1002100008040201080402010102040810204080C1
:100220000102040810204080D80CD30C11241FBEFA
:10023000CFEFD1E2DEBFCDBF00E00CBF12E0A0E007
:10024000B2E0EAE9FFE100E00BBF02C007900D92C7
:10025000A037B107D9F726E0A0E7B2E001C01D92B0
:10026000A530B207E1F711E0C5E1D1E000E006C03A
:1002700021970109802FFE010E948F0DC431D10703
:1002800080E00807A9F70E943C0A0C94BC0FB8CE86
:10029000FC01538D448D252F30E0842F90E0821B8C
:1002A000930B541710F0CF96089501970895FC0111
:1002B000918D828D981761F0828DDF01A80FB11D9D
:1002C0005D968C91928D9F5F9F73928F90E00895C1
:1002D0008FEF9FEF0895FC01918D828D981731F07B
:1002E000828DE80FF11D858D90E008958FEF9FEFCF
:1002F0000895FC01918D228D892F90E0805C9F4FA5
:10030000821B91098F73992708958CE893E0F1DFA0
:1003100021E0892B09F420E0822F0895FC01848DCF
:10032000DF01A80FB11DA35ABF4F2C91848D90E01F
:1003300001968F739927848FA689B7892C93A089FA
:10034000B1898C9180648C93938D848D981306C0B1
:100350000288F389E02D80818F7D80830895EF925C
:10036000FF920F931F93CF93DF93EC0181E0888F6F
:100370009B8D8C8D981305C0E889F989808185FD56
:1003800023C0F62E0B8D10E00F5F1F4F0F73112748
:10039000E02E8C8DE8120BC00FB607FCFACFE8896F
:1003A000F989808185FFF5CFCE01B8DFF2CF8B8D43
:1003B000FE01E80FF11DE35AFF4FF0820B8FEA892F
:1003C000FB898081806207C0EE89FF896083E889AC
:1003D000F98980818064808381E090E0DF91CF9112
:1003E0001F910F91FF90EF900895CF93DF93EC0151
:1003F000888D8823C1F0EA89FB89808185FD05C04D
:10040000A889B9898C9186FD0EC00FB607FCF5CF7F
:10041000808185FFF2CFA889B9898C9185FFEDCFC6
:10042000CE017CDFE8CFDF91CF91089580E090E0AE
:10043000892B19F06ADF811125C080E090E0892BBB
:1004400041F080E090E0892B21F00E9400008111B2
:100450001CC080E090E0892B41F080E090E0892B87
:1004600021F00E940000811113C080E090E0892BF0
:10047000A1F080E090E0892B81F00E9400008111C2
:100480000AC008950E940000D8CF0E940000E1CF6A
:100490000E940000EACF0C94000008950E94A80F6B
:1004A000CF93DF93282F30E0F901EE5DFE4F84916A
:1004B000F901EE51FE4FD491F901E456FE4FC4917B
:1004C000CC2389F08111CFD1EC2FF0E0EE0FFF1F8C
:1004D000EE57FE4FA591B491EC91ED2381E090E0B1
:1004E00021F480E002C080E090E0DF91CF91089598
:1004F0001F920F920FB60F9211240BB60F922F93EB
:100500003F934F935F936F937F938F939F93AF939B
:10051000BF93EF93FF938CE893E000DFFF91EF919F
:10052000BF91AF919F918F917F916F915F914F910B
:100530003F912F910F900BBE0F900FBE0F901F9009
:1005400018951F920F920FB60F9211240BB60F92AF
:100550002F938F939F93EF93FF93E0919C03F091E0
:100560009D038081E091A203F091A30382FD12C05C
:1005700090818091A5038F5F8F732091A6038217CE
:1005800051F0E091A503F0E0E457FC4F958F809384
:10059000A50301C08081FF91EF919F918F912F91D1
:1005A0000F900BBE0F900FBE0F901F9018951F93CA
:1005B000CF93DF93282F30E0F901EE5DFE4F849159
:1005C000F901EE51FE4FD491F901E456FE4FC4916A
:1005D000CC23C1F0162F811146D1EC2FF0E0EE0FA5
:1005E000FF1FE85FFE4FA591B4918FB7F8941111EA
:1005F00005C09C91ED2FE095E92302C0EC91ED2B15
:10060000EC938FBFDF91CF911F91089585ED80937B
:10061000BC008091BC0084FDFCCF10925C03089567
:1006200040913603262F30E0240F311D2132310551
:10063000DCF420915C032430C9F4FC0180E090E0FC
:10064000861758F4309136032191DC01AC5EBC4F23
:10065000A30FB11D2C930196F3CF80913603680F41
:100660006093360380E0089581E0089582E0089564
:1006700008958FEF9FEF08958FEF9FEF089580917A
:10068000130390E09195819591090895CF93DF939D
:100690001F921F92CDB7DEB7CB01642F49835A83D7
:1006A000BFDF4981842F5A81952F0F900F90DF91E2
:1006B000CF910895CF93DF931F92CDB7DEB76983B3
:1006C00061E0CE010196ACDF81E090E00F90DF9118
:1006D000CF910895089580E090E00895CF92DF9241
:1006E000EF92FF920F931F93CF93DF936C018B01D7
:1006F0007A01EC01C258DD4F888187FF04C0FB01FD
:100700001182108224C08CE08C9D90018D9D300D53
:1007100011248881A901480F511D87FD5A958091A8
:10072000820290E04817590794F48881A901480F84
:10073000511D87FD5A95CA01FA01EE0FFF1F8E0F5A
:100740009F1FFC01ED57FD4F808186FD19C08881F8
:100750008F5F88838CE08C9D90018D9D300D1124DE
:100760008881A901480F511D87FD5A958091820209
:1007700090E048175907B4F488818C303CF112C0DE
:100780008881280F311D87FD3A95F901EE0FFF1F73
:100790002E0F3F1FF901ED57FD4F808160E08F73F1
:1007A00006DFD5CFF80180819181049680349C4981
:1007B00018F480E49CE904C0F801808191810496DA
:1007C000F701918380838FEF888344C0F8014081D3
:1007D00051818881B901680F711D87FD7A95CB0120
:1007E000FB01EE0FFF1F8E0F9F1FFC01ED57FD4F0A
:1007F00081819281840F951FF70191838083888185
:10080000A901480F511D87FD5A95CA01FA01EE0F43
:10081000FF1F8E0F9F1FFC01ED57FD4F808186FF4C
:1008200019C08881280F311D87FD3A95F901EE0F17
:10083000FF1F2E0F3F1FF901ED57FD4F808161E033
:100840008F73DF91CF911F910F91FF90EF90DF9009
:10085000CF90ADCEDF91CF911F910F91FF90EF9090
:10086000DF90CF90089590E0FC013197E231F105DF
:1008700008F04EC08827EE58FF4F8F4F0C948F0D15
:10088000809180008F7703C0809180008F7D80935E
:100890008000089580918000877FF9CF84B58F779D
:1008A00002C084B58F7D84BD08958091B0008F779C
:1008B00003C08091B0008F7D8093B0000895809137
:1008C00090008F7707C0809190008F7D03C080914A
:1008D0009000877F8093900008958091A0008F778B
:1008E00007C08091A0008F7D03C08091A000877F0A
:1008F0008093A0000895809120018F7707C0809198
:1009000020018F7D03C080912001877F809320018B
:100910000895CF93DF9390E0FC01EE51FE4F2491B8
:10092000FC01E456FE4F8491882361F190E0880F2A
:10093000991FFC01E859FE4FC591D491FC01E85F75
:10094000FE4FA591B491611109C09FB7F8948881B9
:10095000209582238883EC912E230BC0623061F4B2
:100960009FB7F8943881822F809583238883EC91F8
:100970002E2B2C939FBF06C08FB7F894E8812E2BA7
:1009800028838FBFDF91CF9108953FB7F89480916E
:10099000870390918803A0918903B0918A0326B5BB
:1009A000A89B05C02F3F19F00196A11DB11D3FBFA7
:1009B000BA2FA92F982F8827820F911DA11DB11D35
:1009C000BC01CD0142E0660F771F881F991F4A9531
:1009D000D1F708951F920F920FB60F9211242F9303
:1009E0003F938F939F93AF93BF9380918303909195
:1009F0008403A0918503B09186033091820323E0A4
:100A0000230F2D3720F40196A11DB11D05C026E846
:100A1000230F0296A11DB11D2093820380938303AF
:100A200090938403A0938503B093860380918703FA
:100A300090918803A0918903B0918A030196A11D2A
:100A4000B11D8093870390938803A0938903B0938B
:100A50008A03BF91AF919F918F913F912F910F90FA
:100A60000FBE0F901F9018951F920F920FB60F9206
:100A700011240BB60F922F933F934F935F936F9375
:100A80007F938F939F93AF93BF93EF93FF93809147
:100A9000B900887F803609F49CC068F5883209F473
:100AA0005BC090F4803109F454C038F4882309F411
:100AB000F6C0883009F44DC0F5C0883109F44CC047
:100AC000803209F45DC0EEC0803409F468C048F497
:100AD000803309F455C0883309F0E4C080935B0388
:100AE000D8C0803509F44FC0883509F45DC088341A
:100AF00009F0D8C0D6C0883909F4C7C0A8F488372F
:100B000009F467C038F4883609F463C0803709F403
:100B100060C0C8C0883809F4B8C0803909F45FC023
:100B2000803809F0BFC05BC0803B09F486C038F450
:100B3000803A09F466C0883A09F47FC0B3C0803CAB
:100B400009F4A7C0883C09F4A4C0883B09F48AC012
:100B5000A9C08091810310C09091800380917F0390
:100B6000981770F5E091800381E08E0F80938003E9
:100B7000F0E0E15AFC4F80818093BB0085EC86C099
:100B800080935B038EC0E091800381E08E0F8093A1
:100B900080038091BB00F0E0E15AFC4F808390918C
:100BA000800380917F036EC0E091800381E08E0F0F
:100BB000809380038091BB00F0E0E15AFC4F80837A
:100BC00080915E0381116DC081E080935D0384EAB2
:100BD00061C083E080935C0310925A03CFCF809171
:100BE0005A03803208F051C0E0915A0381E08E0F21
:100BF00080935A038091BB00F0E0E65CFC4F808359
:100C0000BDCF85EC8093BC0010925C0380915A03A9
:100C1000803230F4E0915A03F0E0E65CFC4F108241
:100C200060915A0370E0E0913803F09139038AE350
:100C300093E0199510925A0335C084E080935C03C9
:100C40001092370310923603E0913403F09135038C
:100C5000199580913603811105C081E08093360398
:100C600010921403E091370381E08E0F80933703D5
:100C7000F0E0EC5EFC4F80818093BB0090913703E5
:100C800080913603981708F479CF85E88093BC00EB
:100C900009C085EC8093BC0010925C0303C01092E5
:100CA0005B03B4DCFF91EF91BF91AF919F918F9166
:100CB0007F916F915F914F913F912F910F900BBE5C
:100CC0000F900FBE0F901F901895CF93DF93D62FE4
:100CD000C42FFC016083418361E08CE01ADE61E097
:100CE00087E017DE61E088E014DE61E084E011DE79
:100CF00010928B03EDD160E087E059DCD230A9F18E
:100D0000C8F4D13009F05FC080918B03837F80935A
:100D10008B03DED180918000816880938000C77052
:100D2000C860C0938100109289001092880061E031
:100D30008BE046C0D33079F1D43009F044C08091C3
:100D40008B038E7B80938B03C3D18091900081684D
:100D500080939000C770C860C09391001092990072
:100D60001092980061E085E02BC080918B038D7E0E
:100D700080938B03ADD18091900089608093900027
:100D8000C770C860C093910010929D0010929C00A3
:100D900061E083E015C080918B038F7580938B0396
:100DA00097D18091A00081688093A000C770C8602F
:100DB000C093A1001092A9001092A80061E086E003
:100DC000DF91CF91A6CDDF91CF9108951F93CF935F
:100DD000DF93EC01162F8881803308F04CC061E06E
:100DE000812F97DD8881E82FF0E09F01220F331FCC
:100DF000E20FF31FED57FD4F1F739081907C192B6D
:100E0000108319821A826CE07ED69CE0899FB00123
:100E1000112440E050E09A01260F371FF901EE0F30
:100E2000FF1F2E0F3F1FF901ED57FD4F908196FDDB
:100E300016C04F5F5F4F4C30510569F7813001F5A7
:100E40001092800082E080938100109285001092C1
:100E50008400B19A80916F00826080936F00E88176
:100E6000F0E0CF01880F991FE80FF91FED57FD4FF4
:100E70008081806480838881DF91CF911F91089564
:100E8000823061F41092900080939100109295004E
:100E90001092940088BB80937100E1CF833069F495
:100EA0001092A00082E08093A1001092A500109201
:100EB000A40089BB80937200D2CF8111D0CF109251
:100EC000200182E0809321011092250110922401DB
:100ED0008ABB80937300C3CFFC0190918202903350
:100EE000A0F481E0890F809382029083892F90E0A3
:100EF000FC01EE0FFF1F8E0F9F1FFC01ED57FD4FF2
:100F000088EB9BE09283818308958FEF808308951F
:100F10001F920F920FB60F9211240BB60F922F93C0
:100F20003F934F935F936F937F938F939F93AF9371
:100F3000BF93EF93FF9348E251E064E271E080E0F9
:100F400090E0CCDBFF91EF91BF91AF919F918F919A
:100F50007F916F915F914F913F912F910F900BBEB9
:100F60000F900FBE0F901F9018951F920F920FB603
:100F70000F9211240BB60F922F933F934F935F93D1
:100F80006F937F938F939F93AF93BF93EF93FF9351
:100F900048EA50E064EA70E083E090E09FDBFF9174
:100FA000EF91BF91AF919F918F917F916F915F91E1
:100FB0004F913F912F910F900BBE0F900FBE0F904E
:100FC0001F9018951F920F920FB60F9211240BB617
:100FD0000F922F933F934F935F936F937F938F93D2
:100FE0009F93AF93BF93EF93FF9348E950E064E979
:100FF00070E082E090E072DBFF91EF91BF91AF91E2
:101000009F918F917F916F915F914F913F912F9120
:101010000F900BBE0F900FBE0F901F9018951F9250
:101020000F920FB60F9211240BB60F922F933F938E
:101030004F935F936F937F938F939F93AF93BF93E0
:10104000EF93FF9348E850E064E870E081E090E0BF
:1010500045DBFF91EF91BF91AF919F918F917F9170
:101060006F915F914F913F912F910F900BBE0F9019
:101070000FBE0F901F9018950895CF92DF92EF92B8
:10108000FF920F931F93CF93DF936C017A018B0133
:10109000C0E0D0E0CE15DF0589F0D8016D918D015B
:1010A000D601ED91FC910190F081E02DC6011995DA
:1010B000892B11F47E0102C02196ECCFC701DF918C
:1010C000CF911F910F91FF90EF90DF90CF900895F7
:1010D000CF93DF9360E08CE06ADA60E088E067DA63
:1010E000C7E0D0E060E084E062DA80918B0390E0BA
:1010F0000C2E02C0959587950A94E2F780FF02C0F6
:1011000061E001C060E088E052DA61E084E04FDA3B
:10111000219740F761E08CE0DF91CF9148CA0F93AF
:101120001F9390E0FC01EE51FE4F6491FC01E456E8
:10113000FE4FE491F0E0EE0FFF1FEE57FE4F85915A
:10114000949100E412E42FE030E040E050D16115CA
:1011500071058105910549F0DC01CB010196A11DC6
:10116000B11DBC01CD019F7003C060E070E0CB01F8
:101170001F910F910895009761F0FC0101900020EC
:10118000E9F73197AF01481B590BBC018CE893E09C
:1011900074CF80E090E00895FC018081823049F0B6
:1011A00018F4813079F00895833031F0843039F0CB
:1011B000089544E081E008C047E085E005C046E0CE
:1011C00080E002C043E082E021E030E0B90102C0EB
:1011D000660F771F8A95E2F7CB0101C0220F4A956F
:1011E000EAF7822B809590918B03892380938B0360
:1011F0006FCFFC018081823071F018F4813031F0C2
:101200000895833069F0843081F008951092890048
:1012100010928800089510929D0010929C000895ED
:101220001092A9001092A8000895109299001092AF
:10123000980008958F929F92AF92BF920F931F9341
:10124000CF93DF93CDB7DEB7A1970FB6F894DEBF8B
:101250000FBECDBF19A2423008F44AE08E010F5DE7
:101260001F4F842E912CA12CB12CA501940129D4BF
:10127000E62FB901CA0101501109EA3014F4E05D0A
:1012800001C0E95CD801EC93232B242B252B69F7B3
:10129000C80171DFA1960FB6F894DEBF0FBECDBFB7
:1012A000DF91CF911F910F91BF90AF909F908F9042
:1012B000089561CF0F931F93CF93DF93EC01888143
:1012C0009981009729F02A813B812617370780F4FE
:1012D0008B016F5F7F4F58D5009761F099838883AA
:1012E0001B830A832C813D81232B11F4FC01108286
:1012F00081E001C080E0DF91CF911F910F910895AF
:10130000EF92FF920F931F93CF93DF93FC01248101
:1013100035816115710511F480E017C04115510543
:1013200099F07B01EC018A01020F131FB801C2DFA3
:10133000882391F3288139818C819D81B701820FA7
:10134000931F13D61D830C8381E0DF91CF911F91F2
:101350000F91FF90EF9008956115710549F0FB0121
:1013600001900020E9F73197AF01461B570BC8CF1A
:1013700080E00895EF92FF920F931F93CF93DF9336
:10138000EC01198218821B821A821D821C8261154F
:10139000710531F18B01FB0101900020E9F73197D4
:1013A0007F01E61AF70AB70185DF288139818111AB
:1013B0000CC02115310511F0C9014ED419821882D3
:1013C0001D821C821B821A820BC0FD82EC82B80136
:1013D000C901DF91CF911F910F91FF90EF90C5C58B
:1013E000DF91CF911F910F91FF90EF900895CF92D1
:1013F000DF92EF92FF920F931F93E82FF92F05C012
:10140000015011092109310961F190819623941746
:10141000B9F305C0015011092109310911F1908179
:1014200096239413F7CFC12CD12CE12CF12C0AC0B8
:101430008FEFC81AD80AE80AF80A0C151D052E0500
:101440003F0579F080818623841791F36C2D7D2DE3
:101450008E2D9F2D1F910F91FF90EF90DF90CF90D9
:10146000089560E070E080E090E01F910F91FF90A0
:10147000EF90DF90CF900895CF93DF93CDB7DEB795
:101480002C970FB6F894DEBF0FBECDBF789484B50D
:10149000826084BD84B5816084BD85B5826085BD70
:1014A00085B5816085BD80916E00816080936E00FE
:1014B00010928100809181008260809381008091F0
:1014C00081008160809381008091800081608093A1
:1014D00080008091B10084608093B1008091B00061
:1014E00081608093B0008091910082608093910030
:1014F0008091910081608093910080919000816043
:10150000809390008091A10082608093A1008091DF
:10151000A10081608093A1008091A00081608093F0
:10152000A00080912101826080932101809121019E
:10153000816080932101809120018160809320014E
:1015400080917A00846080937A0080917A00826032
:1015500080937A0080917A00816080937A008091F4
:101560007A00806880937A001092C10061E088E17F
:10157000D0D961E089E1CDD961E08AE1CAD961E0E1
:101580008BE1C7D960E08CE1C4D960E08DE1C1D9BD
:1015900061E088E10CD860E089E109D860E08EE183
:1015A000B8D960E08FE1B5D960E080E2B2D960E0FF
:1015B00081E2AFD960E082E2ACD98CE180937D0218
:1015C0008DE18093780286E18093730287E18093B6
:1015D00071028EE294E00DDE8EE294E0DDDD80E3C8
:1015E00094E007DE80E394E0D7DD8AE294E001DE58
:1015F0008AE294E0D1DD8CE294E0FBDD8CE294E0C1
:10160000CBDDE0919C03F0919D0382E08083E0912B
:101610009803F09199031082E0919A03F0919B0353
:101620008FEC80831092A403E091A003F091A103BA
:1016300086E08083E0919E03F0919F03808180612A
:101640008083E0919E03F0919F0380818860808376
:10165000E0919E03F0919F03808180688083E091F8
:101660009E03F0919F0380818F7D808385E392E0CC
:1016700082DD8EE492E07FDD6DE472E0CE010196C2
:1016800079DE8EE10E945002019719F063E372E067
:1016900002C061E372E0CE0101965EDE8FE10E943E
:1016A0005002019719F063E372E002C061E372E057
:1016B000CE01019651DE80E20E945002019719F09E
:1016C00063E372E002C061E372E0CE01019644DEA2
:1016D00081E20E945002019719F063E372E002C0B8
:1016E00061E372E0CE01019637DE82E20E94500291
:1016F000019719F063E372E002C061E372E0CE018A
:1017000001962ADE80913B0490913C040097B9F049
:1017100069817A816115710589F040913D0450918C
:101720003E042D813E814217530740F01ED48D8127
:101730009E819093400480933F0417C08DD289818D
:101740009A8190933C0480933B048B819C8190937D
:101750003E0480933D048D819E819093400480934C
:101760003F041A8219821C821B821E821D8289817B
:101770009A8172D260E080917D02CBD860E0809146
:101780007802C7D860E08AE10E94D70260E08BE16E
:101790000E94D70280917D02C2DC60937902809121
:1017A0007802BDDC6093740261E08AE10E94D70296
:1017B00061E08BE10E94D70280917D02B0DC6093F2
:1017C0007A0280917802ABDC6093750260E08AE176
:1017D0000E94D70261E08BE10E94D70280917D02D6
:1017E0009EDC60937B028091780299DC60937602A4
:1017F00010927C021092770261E572E0CE010796AA
:10180000B9DD1A8219821C821B821E821D82EF8022
:10181000F884E114F104D9F0CB84DC84B601CE0164
:10182000019648DD29813A8181110CC021153105CD
:1018300011F0C90111D21A8219821E821D821C82E6
:101840001B8205C0DE82CD82B701C9018ED34091D3
:101850003F045091400460913B0470913C04CE01E0
:1018600001964EDD81110BC089819A81009709F0A4
:10187000F3D11A8219821E821D821C821B824D8125
:101880005E8169817A818CE893E0F7DB8EE492E0F7
:1018900072DC89819A81E0D18F819885DDD189E5DB
:1018A00092E007DD6091740270E080E090E04AE031
:1018B000C1DC81E692E0FDDC6091750270E080E0C1
:1018C00090E04AE0B7DC81E692E0F3DC60917602DA
:1018D00070E080E090E04AE0ADDC84E692E0E9DC94
:1018E0006091770270E080E090E04AE0A3DC8EE453
:1018F00092E041DC88E692E0DCDC6091790270E005
:1019000080E090E04AE096DC81E692E0D2DC6091F3
:101910007A0270E080E090E04AE08CDC81E692E0C0
:10192000C8DC60917B0270E080E090E04AE082DCFD
:1019300084E692E0BEDC60917C0270E080E090E0A2
:101940004AE078DC8EE492E016DC8CE492E013DC72
:101950008EE492E010DC19D84B015C018CE2C82EB9
:10196000DD24D394E12CF12C10D8DC01CB018819B3
:101970009909AA09BB09883E9340A105B10558F011
:1019800021E0C21AD108E108F10888EE880E83E050
:10199000981EA11CB11CC114D104E104F10421F76B
:1019A0000E94160269CE80913B0490913C0454C180
:1019B000CF93DF93ECE8F3E01382128288EE93E09A
:1019C000A0E0B0E084839583A683B78321E132E071
:1019D0003183208325EC30E03587248724EC30E008
:1019E0003787268720EC30E0318B208B21EC30E0EC
:1019F000338B228B22EC30E0358B248B26EC30E0CD
:101A0000378B268B118E128E138E148EE5EFF5E038
:101A10001382128284839583A683B78383E292E044
:101A20009183808310922904E1E4F4E084EB91E057
:101A3000DF019C011D9221503040E1F782E494E0E7
:101A4000909388058093870589E895E090939105A8
:101A5000809390056DE472E08BE394E08BDCC3E04F
:101A6000D2E042E06A818AE294E02FD942E06B81C1
:101A70008CE294E02AD942E068818EE294E025D994
:101A800042E0698180E394E020D982E394E024DAA3
:101A900085E394E021DA88E394E01EDAC0E0D2E046
:101AA000688170E082E394E091D9698170E085E318
:101AB00094E08CD96A8170E088E394E0DF91CF9163
:101AC00085C9A1E21A2EAA1BBB1BFD010DC0AA1FCE
:101AD000BB1FEE1FFF1FA217B307E407F50720F097
:101AE000A21BB30BE40BF50B661F771F881F991F12
:101AF0001A9469F760957095809590959B01AC015B
:101B0000BD01CF010895991B79E004C0991F961774
:101B100008F0961B881F7A95C9F780950895EE0FF7
:101B2000FF1F881F8BBF0790F691E02D1994CF936C
:101B3000DF938230910510F482E090E0E09103069B
:101B4000F091040620E030E0C0E0D0E0309711F1E1
:101B50004081518148175907C0F04817590761F46F
:101B600082819381209719F09B838A832BC0909365
:101B700004068093030626C02115310519F042178B
:101B8000530718F49A01BE01DF01EF010280F381CF
:101B9000E02DDCCF2115310509F1281B390B24304C
:101BA000310590F412968D919C91139761157105F2
:101BB00021F0FB019383828304C0909304068093F9
:101BC0000306FD01329644C0FD01E20FF31F81932D
:101BD0009193225031092D933C933AC020910106F4
:101BE00030910206232B41F42091090230910A0220
:101BF00030930206209301062091070230910802DB
:101C00002115310541F42DB73EB740910B0250919B
:101C10000C02241B350BE0910106F0910206E2173D
:101C2000F307A0F42E1B3F0B2817390778F0AC01FF
:101C30004E5F5F4F2417350748F04E0F5F1F5093DC
:101C40000206409301068193919302C0E0E0F0E028
:101C5000CF01DF91CF9108950F931F93CF93DF931F
:101C6000009709F48CC0FC01329713821282009114
:101C70000306109104060115110581F420813181BC
:101C8000820F931F20910106309102062817390711
:101C900079F5F0930206E093010671C0D80140E0A7
:101CA00050E0AE17BF0750F412962D913C91139758
:101CB000AD012115310509F1D901F3CF9D01DA01FB
:101CC0003383228360817181860F971F8217930768
:101CD00069F4EC0128813981260F371F2E5F3F4FB1
:101CE000318320838A819B8193838283452B29F4CE
:101CF000F0930406E093030642C01396FC93EE9320
:101D00001297ED01499159919E01240F351FE21759
:101D1000F30771F480819181840F951F02961196CB
:101D20009C938E938281938113969C938E931297AA
:101D3000E0E0F0E0D80112968D919C911397009706
:101D400019F0F8018C01F6CF8D919C9198012E5FCE
:101D50003F4F820F931F20910106309102062817F2
:101D6000390769F4309729F410920406109203069B
:101D700002C0138212821093020600930106DF91C3
:101D8000CF911F910F9108956F927F928F929F92A2
:101D9000AF92BF92CF92DF92EF92FF920F931F9379
:101DA000CF93DF93EC01009781F4CB01DF91CF91CA
:101DB0001F910F91FF90EF90DF90CF90BF90AF9069
:101DC0009F908F907F906F90B2CEFC01E60FF71F2F
:101DD0009C0122503109E217F30708F4A8C0D90189
:101DE0000D911C91119706171707A8F005301105E2
:101DF00008F49BC0C80104978617970708F495C09C
:101E000002501109061B170B019311936D937C93DC
:101E1000CF0122DF8AC05B01A01AB10A4C01800EFB
:101E2000911EA0910306B091040640E050E0E12C21
:101E3000F12C109709F44AC0A815B905D1F56D9099
:101E40007C901197630182E0C80ED11CCA14DB0498
:101E500080F1A3014A195B096A0182E0C80ED11C16
:101E60001296BC9012971396AC91B5E0CB16D104A4
:101E700040F0B282A38351834083D9016D937C9358
:101E80000AC00E5F1F4FC301800F911FF90191839C
:101E90008083EB2DFA2FE114F10431F0D701139672
:101EA000FC93EE93129741C0F0930406E09303066F
:101EB0003CC08D919C9111974817590708F4AC01CB
:101EC0007D0112960D90BC91A02DB3CF809101069B
:101ED0009091020688159905E1F446175707C8F452
:101EE0008091070290910802009741F48DB79EB748
:101EF00040910B0250910C02841B950BE817F907D7
:101F0000B0F4F0930206E0930106F9017183608357
:101F10000CC0CB010CDE7C01009749F0A801BE018A
:101F20001BD0CE0199DEC70104C0CE0102C080E003
:101F300090E0DF91CF911F910F91FF90EF90DF9094
:101F4000CF90BF90AF909F908F907F906F900895AB
:101F500081E090E0F89410C0FB01DC0102C0019028
:101F60000D9241505040D8F70895FB01DC010190DB
:101F70000D920020E1F7089511E0C5E1D1E000E005
:101F800005C0802FFE01CBDD2196011DC631D10792
:0A1F900080E00807B1F7F894FFCFD6
:101F9A00090A02010203040000050680000000008D
:101FAA0000AF013D084801F501790157016B0100B5
:101FBA000000005A0346036B0338033F033C03390E
:101FCA0003310030007374656170682F7265736342
:101FDA0075652D6C696E652F4F42520A0A000D0A0B
:101FEA00004C696E65733A200052696768743A203A
:101FFA00002C2000207C20004C656674203A2000CA
:020000023000CC
:10E000000D9489F10D94B2F10D94B2F10D94B2F129
:10E010000D94B2F10D94B2F10D94B2F10D94B2F1F0
:10E020000D94B2F10D94B2F10D94B2F10D94B2F1E0
:10E030000D94B2F10D94B2F10D94B2F10D94B2F1D0
:10E040000D94B2F10D94B2F10D94B2F10D94B2F1C0
:10E050000D94B2F10D94B2F10D94B2F10D94B2F1B0
:10E060000D94B2F10D94B2F10D94B2F10D94B2F1A0
:10E070000D94B2F10D94B2F10D94B2F10D94B2F190
:10E080000D94B2F10D94B2F10D94B2F10D94B2F180
:10E090000D94B2F10D94B2F10D94B2F10D94B2F170
:10E0A0000D94B2F10D94B2F10D94B2F10D94B2F160
:10E0B0000D94B2F10D94B2F10D94B2F10D94B2F150
:10E0C0000D94B2F10D94B2F10D94B2F10D94B2F140
:10E0D0000D94B2F10D94B2F10D94B2F10D94B2F130
:10E0E0000D94B2F141546D656761323536300041AF
:10E0F000726475696E6F206578706C6F72657220DE
:10E1000073746B3530305632206279204D4C530099
:10E11000426F6F746C6F616465723E004875683F52
:10E1200000436F6D70696C6564206F6E203D200048
:10E130004350552054797065202020203D20005FF9
:10E140005F4156525F415243485F5F3D2000415658
:10E1500052204C696243205665723D20004743437C
:10E160002056657273696F6E203D20004350552024
:10E1700049442020202020203D20004C6F7720663D
:10E18000757365202020203D20004869676820665F
:10E190007573652020203D200045787420667573D6
:10E1A00065202020203D20004C6F636B2066757336
:10E1B000652020203D20004D617220203720323024
:10E1C000313300312E362E3800342E332E350056A2
:10E1D00023202020414444522020206F7020636F70
:10E1E00064652020202020696E73747275637469E1
:10E1F0006F6E2061646472202020496E74657272B3
:10E20000757074006E6F20766563746F7200726A49
:10E210006D702020006A6D70200057686174207056
:10E220006F72743A00506F7274206E6F7420737541
:10E2300070706F72746564004D7573742062652030
:10E2400061206C6574746572002000577269747483
:10E25000696E672045450052656164696E672045B7
:10E26000450045452065727220636E743D00504F35
:10E27000525400303D5A65726F2061646472003FF1
:10E280003D43505520737461747300403D454550C3
:10E29000524F4D207465737400423D426C696E6B41
:10E2A000204C454400453D44756D70204545505215
:10E2B0004F4D00463D44756D7020464C415348001B
:10E2C000483D48656C70004C3D4C69737420492F83
:10E2D0004F20506F72747300513D51756974005234
:10E2E0003D44756D702052414D00563D73686F7707
:10E2F00020696E7465727275707420566563746FF0
:10E30000727300593D506F727420626C696E6B00BD
:10E310002A0011241FBECFEFD1E2DEBFCDBF01E046
:10E320000CBF12E0A0E0B2E0EEE1FDEF03E00BBFB6
:10E3300002C007900D92A030B107D9F712E0A0E01B
:10E34000B2E001C01D92AE30B107E1F70F9460F367
:10E350000D948DFE01E20EBF0FEF0DBF11241FBE05
:10E360000D9460F30D9400F020E030E040ED57E0B4
:10E3700005C0FA013197F1F72F5F3F4F2817390792
:10E38000C0F308959C01260F311DC901A0E0B0E043
:10E390002F5F3F4FABBFFC018791882361F08093D3
:10E3A000C6008091C00086FFFCCF8091C0008064D1
:10E3B0008093C000EACF08958DE08093C6008091DD
:10E3C000C00086FFFCCF8091C00080648093C000B5
:10E3D0008AE08093C6008091C00086FFFCCF8091C8
:10E3E000C00080648093C00008950F94C2F10F9420
:10E3F000DCF10895FC019081992359F09093C600B7
:10E400008091C00086FFFCCF8091C0008064809323
:10E41000C0003196992379F70895282F982F929567
:10E420009F70892F805D8A3308F0895F8093C600D2
:10E430008091C00086FFFCCF8091C00080648093F3
:10E44000C000822F8F70982F905D9A3308F0995FEB
:10E450009093C6008091C00086FFFCCF8091C000E1
:10E4600080648093C00008959C01FB01853691056E
:10E470001CF46330710594F0C90164E670E00F94F8
:10E480002EFE605D7F4F6093C6008091C00086FFC6
:10E49000FCCF8091C00080648093C0002B30310598
:10E4A00014F43297B4F0C90164E670E00F942EFEC4
:10E4B0006AE070E00F942EFE605D7F4F6093C600AF
:10E4C0008091C00086FFFCCF8091C0008064809363
:10E4D000C000C9016AE070E00F942EFEC0968093E0
:10E4E000C6008091C00086FFFCCF8091C000806490
:10E4F0008093C00008951F93182F8EE692EE60E07F
:10E500000F94C2F11093C6008091C00086FFFCCF2B
:10E510008091C00080648093C0000F94DCF11F9153
:10E5200008952F923F924F925F926F927F928F92B7
:10E530009F92AF92BF92CF92DF92EF92FF920F9392
:10E540001F93DF93CF93CDB7DEB762970FB6F894E2
:10E55000DEBF0FBECDBF382E622ECA01DB015C01CB
:10E560006D01772420E2222E2E010894411C511CBB
:10E570008BC081E0A81680E0B80681E0C80680E084
:10E58000D80628F0C601AA27BB270F940DF2BB2797
:10E59000AD2D9C2D8B2D0F940DF28A2D0F940DF225
:10E5A0002092C6008091C00086FFFCCF8091C00001
:10E5B00080648093C0009DE29093C6008091C0006B
:10E5C00086FFFCCF8091C00080648093C0002092C1
:10E5D000C6008091C00086FFFCCF8091C00080649F
:10E5E0008093C00019828601750188249924A1E0D6
:10E5F0003A1651F03A1620F0B2E03B1661F409C029
:10E600000BBFF701779007C0C7010F9477FE782EF4
:10E6100002C0F7017080872D0F940DF22092C60082
:10E620008091C00086FFFCCF8091C0008064809301
:10E63000C000872D8052F401EF70F0708F3520F408
:10E64000E40DF51D708204C0E40DF51D8EE280839B
:10E650000894E11CF11C011D111D0894811C911CE2
:10E6600090E18916910409F0C2CF80E190E0A0E02A
:10E67000B0E0A80EB91ECA1EDB1E198AC2010F9493
:10E68000FAF10F94DCF16A94662009F072CF629679
:10E690000FB6F894DEBF0FBECDBFCF91DF911F91B3
:10E6A0000F91FF90EF90DF90CF90BF90AF909F9031
:10E6B0008F907F906F905F904F903F902F90089534
:10E6C0002F923F924F925F926F927F928F929F9282
:10E6D000AF92BF92CF92DF92EF92FF920F931F9370
:10E6E000DF93CF93CDB7DEB7CD53D1400FB6F894BB
:10E6F000DEBF0FBECDBF01E20EBF0FEF0DBF94B75F
:10E70000F894A89514BE80916000886180936000A1
:10E7100010926000789493FF05C0E0910002F091A0
:10E7200001021995279A2F9A8091C00082608093E8
:10E73000C00080E18093C40088E18093C1000000A4
:10E74000EE24FF24870144E0A42EB12CCC24DD2448
:10E7500024C0C5010197F1F70894E11CF11C011DCB
:10E76000111D21E2E2162EE4F20620E0020720E06D
:10E77000120718F031E0C32ED12CC801B70127ECE5
:10E780003BE140E050E00F9441FE611571058105C9
:10E79000910519F485B1805885B98091C00087FD35
:10E7A00003C0C114D104A9F2A6014F5F5F4FC25E3E
:10E7B000DE4F59834883CE51D140C25EDE4F8881FF
:10E7C0009981CE51D140019711F00D9410FEC05D9A
:10E7D000DE4F19821882C053D14060E0C15DDE4F28
:10E7E0001882CF52D14088249924C35DDE4F19820C
:10E7F0001882CD52D140C05EDE4F188219821A8233
:10E800001B82C052D140CE5CDE4F188219821A8220
:10E810001B82C253D140EE24FF2487010BBFF701B6
:10E8200007911691C45CDE4F19830883CC53D14005
:10E830000D940BFEC25EDE4F28813981CE51D1404E
:10E840002130310509F52091C600C25EDE4F1982E4
:10E850001882CE51D14022C02F5F3F4F4F4F5F4FA4
:10E86000213082E138078AE7480780E0580780F0C6
:10E87000C45CDE4FE881F981CC53D140EF5FFF4F9C
:10E8800019F0EE27FF27099420E030E040E050E047
:10E890008091C00087FFE0CF2091C600C35DDE4FAE
:10E8A00048815981CD52D1404F5F5F4FC35DDE4FEC
:10E8B00059834883CD52D140213209F063C64A3092
:10E8C000510508F05FC60894811C911C53E0851621
:10E8D000910409F059C600E010E018C081E280936D
:10E8E000C6008091C00086FFFCCF8091C00080648C
:10E8F0008093C0002F5F3F4F2931310579F70F9486
:10E90000DCF10F5F1F4F0530110519F020E030E0FA
:10E91000E5CF10920A0210920B0210920C02109294
:10E920000D02109206021092070210920802109235
:10E930000902109202021092030210920402109235
:10E9400005028FEE90EE60E00F94F5F180E191EE1C
:10E9500060E00F94C2F18091C00087FFFCCF9091DE
:10E96000C600903608F09F759032B8F09093C600BC
:10E970008091C00086FFFCCF8091C00080648093AE
:10E98000C000A0E2A093C6008091C00086FFFCCF2B
:10E990008091C00080648093C000983409F4D7C18E
:10E9A0009934B8F4923409F459C1933458F490333B
:10E9B00019F1903308F4E3C59F33A1F1903409F0C5
:10E9C000DEC5BDC0953409F470C1963409F0D7C5D1
:10E9D00098C1923509F42BC2933538F49C3409F46C
:10E9E000F5C1913509F0CBC518C2963509F445C279
:10E9F000993509F0C4C567C483E792EE62E00F94CD
:10EA0000F5F110920602109207021092080210927D
:10EA1000090210920A0210920B0210920C0210923C
:10EA20000D0213C18FE792EE62E00F94F5F18FEEC5
:10EA300090EE60E00F94F5F181E291EE60E00F94CA
:10EA4000C2F187EB91EE60E00F94F5F180E391EE77
:10EA500060E00F94C2F184EE90EE60E00F94F5F167
:10EA60008FE391EE60E00F94C2F186E090E061E008
:10EA700070E00F9434F20F94DCF18DE591EE60E0DC
:10EA80000F94C2F189EC91EE60E00F94F5F18EE401
:10EA900091EE60E00F94C2F183EC91EE60E00F9490
:10EAA000F5F18CE691EE60E00F94C2F18EE10F94E7
:10EAB0000DF288E90F940DF281E00F940DF20F949E
:10EAC000DCF18BE791EE60E00F94C2F119E0E0E039
:10EAD000F0E010935700E4918E2F0F940DF20F94F5
:10EAE000DCF18AE891EE60E00F94C2F1E3E0F0E03F
:10EAF00010935700E4918E2F0F940DF20F94DCF1D8
:10EB000089E991EE60E00F94C2F1E2E0F0E0109349
:10EB10005700E4918E2F0F940DF20F94DCF188EAE8
:10EB200091EE60E00F94C2F1E1E0F0E01093570045
:10EB30001491812F0F940DF20F94DCF107CF8BE825
:10EB400092EE62E00F94F5F18BE492EE60E00F94A8
:10EB5000F5F10F94DCF100E010E019C0C8016F2D51
:10EB60000F947FFEFF2031F489E492EE60E00F9471
:10EB7000C2F10BC0F092C6008091C00086FFFCCFAE
:10EB80008091C00080648093C0000F5F1F4FC80158
:10EB900081519F41A0E0B0E0ABBFFC01F790BAE229
:10EBA000FB1621F0E2E000301E07C1F60F94DCF105
:10EBB0000F94DCF187E592EE60E00F94F5F10F948D
:10EBC000DCF1CC24DD2400E010E01EC0C8010F946D
:10EBD00077FEF82E882331F489E492EE60E00F94FA
:10EBE000C2F10BC08093C6008091C00086FFFCCFAD
:10EBF0008091C00080648093C000FE1419F00894D6
:10EC0000C11CD11C0F5F1F4FC80181519F41A0E063
:10EC1000B0E0ABBFFC01E790FAE2EF1621F022E092
:10EC20000030120799F60F94DCF10F94DCF182E6C4
:10EC300092EE60E00F94C2F1C60161E070E00F94C3
:10EC400034F20F94DCF10F94DCF110920202109276
:10EC50000302109204021092050278CE89E992EE26
:10EC600062E00F94F5F1279A2F9A16C02F9880E052
:10EC700090E0E0EDF7E03197F1F7019684369105E9
:10EC8000C1F72F9A80E090E0E0EDF7E03197F1F7DF
:10EC9000019684369105C1F78091C00087FFE6CFC9
:10ECA0008091C00087FFFCCF64C485EA92EE62E0E9
:10ECB0000F94F5F140910202509103026091040219
:10ECC0007091050281E020E10F9491F2809102029F
:10ECD00090910302A0910402B091050280509F4FD1
:10ECE000AF4FBF4F8093020290930302A0930402A0
:10ECF000B093050280509041A040B04008F426CE69
:10ED0000A4CF83EB92EE62E00F94F5F140910602FE
:10ED100050910702609108027091090280E020E1A1
:10ED20000F9491F28091060290910702A09108023F
:10ED3000B091090280509F4FAF4FBF4F80930602A2
:10ED400090930702A0930802B0930902FFCD80ECD4
:10ED500092EE62E00F94F5F183E792EE60E00F949B
:10ED6000F5F18FE792EE60E00F94F5F18BE892EE0B
:10ED700060E00F94F5F189E992EE60E00F94F5F10F
:10ED800085EA92EE60E00F94F5F183EB92EE60E09D
:10ED90000F94F5F180EC92EE60E00F94F5F187ECC2
:10EDA00092EE60E00F94F5F188ED92EE60E00F9442
:10EDB000F5F18FED92EE60E00F94F5F18AEE92EEB0
:10EDC00060E00F94F5F183E093EEBDCD87EC92EE19
:10EDD00062E00F94F5F181E40F947BF282E40F94EA
:10EDE0007BF283E40F947BF284E40F947BF285E45E
:10EDF0000F947BF286E40F947BF287E40F947BF20E
:10EE000088E40F947BF28AE40F947BF28BE40F94F6
:10EE10007BF28CE40F947BF299CD88ED92EE62E068
:10EE20000F94F5F1772473948824992409C48FED05
:10EE300092EE62E00F94F5F140910A0250910B02BC
:10EE400060910C0270910D0282E020E10F9491F22A
:10EE500080910A0290910B02A0910C02B0910D02D8
:10EE600080509F4FAF4FBF4F80930A0290930B0289
:10EE7000A0930C02B0930D0269CD8AEE92EE62E08F
:10EE80000F94F5F184EE90EE60E00F94F5F18FECC5
:10EE900091EE60E00F94F5F1662477244301CC5D98
:10EEA000DE4F19821882C452D140D401C301B695F5
:10EEB000A79597958795CA5DDE4F88839983AA8326
:10EEC000BB83C652D140CC5DDE4FA881B981C4520C
:10EED000D1401196CC5DDE4FB983A883C452D14096
:10EEE000CD0162E070E00F9434F2B0E2B093C6005E
:10EEF0008091C00086FFFCCF8091C0008064809329
:10EF0000C000EDE2E093C6008091C00086FFFCCF18
:10EF10008091C00080648093C000F0E2F093C6004E
:10EF20008091C00086FFFCCF8091C00080648093F8
:10EF3000C000CA5DDE4FE880F9800A811B81C6529D
:10EF4000D140BB27A12F902F8F2D0F940DF2CA5DBA
:10EF5000DE4F8881C652D1400F940DF2B0E2FB2EF5
:10EF6000F092C6008091C00086FFFCCF8091C00067
:10EF700080648093C0000DE30093C6008091C000C0
:10EF800086FFFCCF8091C00080648093C00010E2B7
:10EF90001093C6008091C00086FFFCCF8091C00016
:10EFA00080648093C0008BBEF3012791C65DDE4F65
:10EFB0002883CA52D140A22EBB24CC24DD2408943D
:10EFC000611C711C811C911C8BBEF3018791282E42
:10EFD0003324442455240894611C711C811C911C09
:10EFE0008BBEF3013791C55DDE4F3883CB52D140E4
:10EFF0000894611C711C811C911C8BBEF30147910C
:10F00000C45DDE4F4883CC52D140ADEFEA2EAFEF66
:10F01000FA2EAFEF0A2FAFEF1A2F6E0C7F1C801E57
:10F02000911E142D032DF22CEE24EA0CFB1C0C1D5A
:10F030001D1D0F940DF220E22093C6008091C000A8
:10F0400086FFFCCF8091C00080648093C000C65DC5
:10F05000DE4F8881CA52D1400F940DF230E23093D6
:10F06000C6008091C00086FFFCCF8091C000806404
:10F070008093C000C45DDE4F8881CC52D1400F9494
:10F080000DF240E24093C6008091C00086FFFCCFA5
:10F090008091C00080648093C000C55DDE4F888190
:10F0A000CB52D1400F940DF250E25093C6008091A4
:10F0B000C00086FFFCCF8091C00080648093C000B8
:10F0C0008FEFE8168FEFF80680E0080780E018075A
:10F0D00031F484E092EE60E00F94C2F1DFC0D80119
:10F0E000C7018070907CA070B0708050904CA040A0
:10F0F000B040D1F52FEF3FE340E050E0E222F322B1
:10F1000004231523CA5DDE4FA880B980CA80DB8046
:10F11000C652D140AE0CBF1CC01ED11EAA0CBB1CD7
:10F12000CC1CDD1C8EE092EE60E00F94C2F1BB2798
:10F13000A12F902F8F2D0F940DF28E2D0F940DF285
:10F1400030E23093C6008091C00086FFFCCF8091F2
:10F15000C00080648093C0004EE34093C60080915D
:10F16000C00086FFFCCF87C08EE09EEFA0E0B0E03D
:10F17000E822F9220A231B239CE0E91694E9F90608
:10F1800090E0090790E0190709F088C0C45DDE4FE0
:10F19000A881CC52D140EA2EFF2400E010E0102FCD
:10F1A0000F2DFE2CEE24C55DDE4FB881CB52D14031
:10F1B000EB0EF11C011D111DD601C501817090706F
:10F1C000A070B070DC0199278827E80EF91E0A1F8D
:10F1D0001B1F20EF30E040E050E0A222B322C42207
:10F1E000D52241E1AA0CBB1CCC1CDD1C4A95D1F7F1
:10F1F000EA0CFB1C0C1D1D1D81E090E0A0E0B0E0BE
:10F20000282239224A225B2235E1220C331C441C7D
:10F21000551C3A95D1F7E20CF31C041D151D57013E
:10F220006801AA0CBB1CCC1CDD1C85E192EE60E0E1
:10F230000F94C2F1C801AA27BB270F940DF2BB2778
:10F24000A12F902F8F2D0F940DF28E2D0F940DF274
:10F2500090E29093C6008091C00086FFFCCF809121
:10F26000C00080648093C000AEE3A093C60080918C
:10F27000C00086FFFCCF8091C00080648093C000F6
:10F28000C601AA27BB270F940DF2BB27AD2D9C2DDD
:10F290008B2D0F940DF28A2D0F940DF20F94DCF14B
:10F2A000CC5DDE4FE881F981C452D140F99709F471
:10F2B0004DCBF4E0EF2EF12C012D112D6E0C7F1CA7
:10F2C000801E911EF2CD83E093EE62E00F94F5F183
:10F2D0008AE192EE60E00F94C2F18091C00087FF56
:10F2E000FCCF1091C6001F751093C6008091C0001E
:10F2F00086FFFCCF8091C00080648093C0000F9493
:10F30000DCF1812F81548A3108F036C1163409F4BA
:10F3100095C0173490F4133409F44EC0143430F40B
:10F320001134F1F0123409F01DC130C0143409F465
:10F3300059C0153409F016C16BC01A3409F4C4C0A1
:10F340001B3438F4173409F48FC0183409F00AC19B
:10F35000A1C01B3409F4D2C01C3409F003C1E8C0B9
:10F360008FEF81B90DC082B1809582B980E090E0C5
:10F37000E0EDF7E03197F1F70196883C9105C1F790
:10F380008091C00087FFEFCF12B8EFC08FEF84B934
:10F390000DC085B1809585B980E090E0E0EDF7E0A3
:10F3A0003197F1F70196883C9105C1F78091C00033
:10F3B00087FFEFCF15B8D9C08FEF87B90DC088B1DF
:10F3C000809588B980E090E0E0EDF7E03197F1F7C3
:10F3D0000196883C9105C1F78091C00087FFEFCF6F
:10F3E00018B8C3C08FEF8AB90DC08BB180958BB9A7
:10F3F00080E090E0E0EDF7E03197F1F70196883C8E
:10F400009105C1F78091C00087FFEFCF1BB8ADC059
:10F410008FEF8DB90DC08EB180958EB980E090E0F0
:10F42000E0EDF7E03197F1F70196883C9105C1F7DF
:10F430008091C00087FFEFCF1EB897C08FEF80BBD1
:10F440000DC081B3809581BB80E090E0E0EDF7E0F6
:10F450003197F1F70196883C9105C1F78091C00082
:10F4600087FFEFCF11BA81C08FEF83BB0DC084B38C
:10F47000809584BB80E090E0E0EDF7E03197F1F714
:10F480000196883C9105C1F78091C00087FFEFCFBE
:10F4900014BA6BC08FEF809301010FC080910201FD
:10F4A00080958093020180E090E0E0EDF7E03197F5
:10F4B000F1F70196883C9105C1F78091C00087FF64
:10F4C000EDCF1092020151C08FEF809304010FC065
:10F4D0008091050180958093050180E090E0E0ED4A
:10F4E000F7E03197F1F70196883C9105C1F78091DB
:10F4F000C00087FFEDCF1092050137C08FEF8093DA
:10F5000007010FC08091080180958093080180E079
:10F5100090E0E0EDF7E03197F1F70196883C910536
:10F52000C1F78091C00087FFEDCF109208011DC088
:10F530008FEF80930A010FC080910B01809580931B
:10F540000B0180E090E0E0EDF7E03197F1F70196F4
:10F55000883C9105C1F78091C00087FFEDCF1092E4
:10F560000B0103C085E292EEEEC98091C00087FFD7
:10F57000FCCF8091C600EAC988E392EEE4C98CE131
:10F5800091EEE1C988249924933011F1943028F444
:10F59000913089F09230B8F408C0953061F195301F
:10F5A000F0F0963009F048C043C02B3109F042C951
:10F5B00091E06BE13FC96227C15DDE4F2883CF52E6
:10F5C000D14092E037C9B22FA0E0622793E032C960
:10F5D000822F90E0A82BB92B622794E02BC92E3004
:10F5E00009F039C3622795E0C05DDE4F19821882A9
:10F5F000C053D1401FC9E1E0F0E0EC0FFD1FC05D3A
:10F60000DE4F08811981C053D140E00FF11F2083E4
:10F610000F5F1F4FC05DDE4F19830883C053D14079
:10F6200062270A171B0709F005C9D80196E002C92D
:10F63000261709F010C303C0973009F0FBC87724E0
:10F640009981933109F412C19431C8F4963009F4C8
:10F65000D8C0973050F4923009F406C1933009F4C1
:10F660006DC0913009F059C253C0913109F477C08F
:10F67000923108F0BBC0903109F04FC2F5C098310B
:10F6800009F487C0993150F4953109F4EFC09531F0
:10F6900008F4C6C1963109F040C2C2C19A3109F4DA
:10F6A0006CC09A3108F491C09B3109F45BC09D3164
:10F6B00009F033C29D81903359F48F81882311F46E
:10F6C0009EE11CC0813011F091E018C098E916C08D
:10F6D000892F807591F0903539F4E0E0F0E089E011
:10F6E0008093570094910AC0983539F4E3E0F0E034
:10F6F00089E080935700949101C090E01A821B82A8
:10F700008D818C831D829E831F8227E030E009C299
:10F710001A8288E08B8381E48C8386E58D8382E581
:10F720008E8389E48F8383E5888780E589878FE5E9
:10F730008A8782E38B872BE030E0F3C18A818139AD
:10F7400041F0823941F0803911F48FE005C080E04A
:10F7500003C082E001C08AE01A828B8344C0772410
:10F76000739482C08D81882311F48EE12CC0813086
:10F7700011F081E028C088E926C01A82E1E0F0E0BB
:10F7800089E08093570084918B831C8224E030E0D1
:10F79000C8C18B81803589F48C81883039F4E2E0EE
:10F7A000F0E089E08093570084910DC0E0E0F0E044
:10F7B00089E080935700849106C0E3E0F0E089E09F
:10F7C0008093570084911A82DFCF8D81836C99E0FA
:10F7D000E1E0F0E0082E90935700E89507B600FCB2
:10F7E000FDCF1A821B8223E030E09BC180EC8A832C
:10F7F000CE5CDE4F188219821A821B82C253D1401E
:10F800008EC18A8190E0A0E0B0E0582F44273327D2
:10F8100022278B8190E0A0E0B0E0DC0199278827C7
:10F82000282B392B4A2B5B2B8D8190E0A0E0B0E098
:10F83000282B392B4A2B5B2B8C8190E0A0E0B0E089
:10F84000BA2FA92F982F8827282B392B4A2B5B2BCF
:10F85000220F331F441F551FC05EDE4F288339839C
:10F860004A835B83C052D1401A8259C13A81C95C34
:10F87000DE4F3883C753D140CA5CDE4F1882C6536F
:10F88000D1408B81C82EDD24CA5CDE4F488159816E
:10F89000C653D140C42AD52A933109F082C0CE5C28
:10F8A000DE4F88819981AA81BB81C253D1408050AB
:10F8B000904CA340B04030F583E0CE5CDE4FE88052
:10F8C000F9800A811B81C253D140F70100935B008C
:10F8D00080935700E89507B600FCFDCFCE5CDE4F65
:10F8E000088119812A813B81C253D14000501F4FAA
:10F8F0002F4F3F4FCE5CDE4F088319832A833B8313
:10F90000C253D140C05EDE4F488159816A817B81FC
:10F91000C052D140DE011B9631E08C9111962C91A2
:10F9200011971296C75CDE4F2883C953D140C85C3B
:10F93000DE4F1882C853D14090E0C85CDE4FE881AA
:10F94000F981C853D1408E2B9F2B0C01FA01609393
:10F950005B0030935700E89511244E5F5F4F6F4F67
:10F960007F4F0EEFE02E0FEFF02ECE0CDF1CC114F8
:10F97000D10499F685E0C05EDE4F088119812A81A5
:10F980003B81C052D140F80120935B008093570027
:10F99000E89507B600FCFDCF81E180935700E8951C
:10F9A00035C0C05EDE4F88819981AA81BB81C0527B
:10F9B000D140B695A795979587957C018601ABE0D8
:10F9C000AA2EB12CAC0EBD1E0BC0D5016D915D01F0
:10F9D000C7010F947FFE0894E11CF11C01501040F8
:10F9E0000115110591F7A60160E070E0440F551F65
:10F9F000661F771FC05EDE4FE880F9800A811B8199
:10FA0000C052D1404E0D5F1D601F711F1A82C05E33
:10FA1000DE4F488359836A837B83C052D1407FC0C5
:10FA2000FA80C55CDE4FF882CB53D140C65CDE4F16
:10FA30001882CA53D1408B81C82EDD24C65CDE4FAC
:10FA400008811981CA53D140C02AD12A1A828981DA
:10FA5000BE016D5F7F4F843121F59601C05EDE4FA0
:10FA6000E880F9800A811B81C052D1400BBFF701A9
:10FA700087919691DB018C9311969C936E5F7F4FDB
:10FA8000D801C7010296A11DB11DC05EDE4F88835B
:10FA90009983AA83BB83C052D14022503040F1F6F3
:10FAA00036C0C05EDE4F288139814A815B81C052F9
:10FAB000D1400894C108D108760100E010E0089414
:10FAC000C11CD11C0894E11CF11C011D111DE20E8A
:10FAD000F31E041F151F21BDBB27A52F942F832FB5
:10FAE00082BD2F5F3F4F4F4F5F4FF89A80B5DB01CC
:10FAF0008D93BD012E153F054007510761F7C05E8C
:10FB0000DE4F288339834A835B83C052D1409601FC
:10FB10002D5F3F4FFB01108204C080EC8A8322E0FE
:10FB200030E08BE18093C6008091C00086FFFCCF5F
:10FB30008091C00080648093C000C15DDE4FF88179
:10FB4000CF52D140F093C6008091C00086FFFCCF19
:10FB50008091C00080648093C000432F3093C60022
:10FB60008091C00086FFFCCF8091C00080648093AC
:10FB7000C000922F2093C6008091C00086FFFCCF6A
:10FB80008091C00080648093C0008EE08093C600A6
:10FB90008091C00086FFFCCF8091C000806480937C
:10FBA000C00065E1C15DDE4FE880CF52D1406E25D7
:10FBB00069276427FE01319610C090819093C6009A
:10FBC0008091C00086FFFCCF31968091C000806498
:10FBD0008093C0006927215030402115310569F715
:10FBE0006093C6008091C00086FFFCCF8091C0006A
:10FBF00080648093C00085B1805885B9772081F4F6
:10FC0000C15DDE4F0881CF52D1400F5FC15DDE4F35
:10FC10000883CF52D14090E0A0E0B0E00D941AF4F8
:10FC200027982F9880E090E020ED37E0F901319798
:10FC3000F1F7019684369105C9F700008091C00064
:10FC40008D7F8093C00081E180935700E895EE2777
:10FC5000FF270994FFCF90E00D941AF497FB092E2B
:10FC600007260AD077FD04D02ED006D000201AF443
:10FC7000709561957F4F0895F6F7909581959F4F08
:10FC80000895A1E21A2EAA1BBB1BFD010DC0AA1FDD
:10FC9000BB1FEE1FFF1FA217B307E407F50720F0F5
:10FCA000A21BB30BE40BF50B661F771F881F991F70
:10FCB0001A9469F760957095809590959B01AC01B9
:10FCC000BD01CF010895AA1BBB1B51E107C0AA1FAC
:10FCD000BB1FA617B70710F0A61BB70B881F991FED
:10FCE0005A95A9F780959095BC01CD010895F99991
:10FCF000FECF92BD81BDF89A992780B50895262F31
:10FD0000F999FECF1FBA92BD81BD20BD0FB6F89400
:0EFD1000FA9AF99A0FBE01960895F894FFCF63
:040000033000E000E9
:00000001FF