:1000000014C1000043C1000041C100003FC1000015
:100010003DC100003BC1000039C1000037C10000F4
:1000200035C1000033C1000031C100002FC1000004
:100030002DC100002BC1000029C1000027C1000014
:1000400025C100000C94080921C100001FC1000057
:100050001DC100001BC1000019C10000D7C600006F
:1000600015C100009DC6000072C600000FC100004F
:100070000DC100000BC1000009C1000007C1000054
:100080000C94DB0803C1000001C10000FFC00000A8
:10009000FDC00000FBC00000F9C0000001C7000067
:1000A000F5C00000F3C000000C94AE08EFC00000E3
:1000B000EDC00000EBC00000E9C000000C94810816
:1000C000E5C00000E3C00000E1C00000DFC00000A8
:1000D000DDC00000DBC00000D9C00000D7C00000B8
:1000E000D5C00000C802CB02BA02BE02C20202039F
:1000F000CF02D302D902DD02E102E702EB02EF02F6
:100100000203F502F902FD0200002100240027008D
:100110002A002D0030003300010100000401070116
:100120000A0100002200250028002B002E003100CB
:10013000340002010000050108010B0100000A0B58
:1001400002090C0D0E080703040100000000000066
:10015000000000000000000000000000000000009F
:10016000000000000000000012111000000000005C
:10017000000000000000000000000000000000007F
:100180000000000020002300260029002C002F0082
:100190003200000100000301060109010505050503
:1001A000070508080808020202020A0A08080404EF
:1001B000040401010101010101010303030303031D
:1001C0000303040707070C0C0C0C0C0C0C0C0202AC
:1001D000020206060606060606060B0B0B0B0B0BA9
:1001E0000B0B010210202008081020401020408036
:1001F00002010201080402010102040810204080EB
:100200008040201008040201800402018040201078
:1002100008040201080402010102040810204080C1
:1002200001020408102040807A0911241FBECFEF7C
:10023000D1E2DEBFCDBF00E00CBF12E0A0E0B2E033
:10024000E4E3F7E100E00BBF02C007900D92AA348F
:10025000B107D9F725E0AAE4B2E001C01D92A73C9E
:10026000B207E1F711E0C5E1D1E000E006C0219757
:100270000109802FFE010E948C0BC431D10780E060
:100280000807A9F70E94FE090C94980BB9CEFC014F
:100290008081823071F018F4813031F0089583301C
:1002A00069F0843081F008951092890010928800DE
:1002B000089510929D0010929C0008951092A9003C
:1002C0001092A80008951092990010929800089535
:1002D000CF92DF92EF92FF920F931F93CF93DF9312
:1002E0006C017A018B01C0E0D0E0CE15DF0589F00A
:1002F000D8016D918D01D601ED91FC910190F081B5
:10030000E02DC6011995892B11F47E0102C02196BA
:10031000ECCFC701DF91CF911F910F91FF90EF902C
:10032000DF90CF900895FC01538D448D252F30E050
:10033000842F90E0821B930B541710F0CF960895F2
:1003400001970895FC01918D828D981761F0828D3F
:10035000DF01A80FB11D5D968C91928D9F5F9F73F9
:10036000928F90E008958FEF9FEF0895FC01918D9B
:10037000828D981731F0828DE80FF11D858D90E008
:1003800008958FEF9FEF0895FC01918D228D892FA5
:1003900090E0805C9F4F821B91098F73992708958D
:1003A00088E593E0F1DF21E0892B09F420E0822F3A
:1003B0000895FC01848DDF01A80FB11DA35ABF4F22
:1003C0002C91848D90E001968F739927848FA68954
:1003D000B7892C93A089B1898C9180648C93938D7B
:1003E000848D981306C00288F389E02D80818F7D6B
:1003F00080830895EF92FF920F931F93CF93DF9323
:10040000EC0181E0888F9B8D8C8D981305C0E88965
:10041000F989808185FD23C0F62E0B8D10E00F5FDA
:100420001F4F0F731127E02E8C8DE8120BC00FB6F3
:1004300007FCFACFE889F989808185FFF5CFCE01E5
:10044000B8DFF2CF8B8DFE01E80FF11DE35AFF4FAD
:10045000F0820B8FEA89FB898081806207C0EE8978
:10046000FF896083E889F98980818064808381E0E5
:1004700090E0DF91CF911F910F91FF90EF90089541
:10048000CF93DF93EC01888D8823C1F0EA89FB8943
:10049000808185FD05C0A889B9898C9186FD0EC033
:1004A0000FB607FCF5CF808185FFF2CFA889B98907
:1004B0008C9185FFEDCFCE017CDFE8CFDF91CF912E
:1004C000089580E090E0892B19F06ADF811125C042
:1004D00080E090E0892B41F080E090E0892B21F0D2
:1004E0000E94000081111CC080E090E0892B41F047
:1004F00080E090E0892B21F00E940000811113C060
:1005000080E090E0892BA1F080E090E0892B81F0E1
:100510000E94000081110AC008950E940000D8CFF7
:100520000E940000E1CF0E940000EACF0C9400007E
:100530000895362F90E0FC01E45CFE4F4491FC01ED
:10054000EE51FE4F2491FC01E456FE4F9491992305
:1005500009F46BC0442309F455C050E0FA01319707
:10056000E231F10508F04EC08827EE58FF4F8F4F5B
:100570000C948C0B809180008F7707C08091800055
:100580008F7D03C080918000877F809380003AC078
:1005900084B58F7702C084B58F7D84BD33C08091D0
:1005A000B0008F7703C08091B0008F7D8093B00042
:1005B00029C0809190008F7707C0809190008F7D37
:1005C00003C080919000877F809390001BC0809132
:1005D000A0008F7707C08091A0008F7D03C080911D
:1005E000A000877F8093A0000DC0809120018F77AD
:1005F00007C0809120018F7D03C080912001877FFB
:1006000080932001E92FF0E0EE0FFF1FEE5DFE4F1B
:10061000A591B4918FB7F894EC91311103C0209556
:100620002E2301C02E2B2C938FBF0895CF93DF93E1
:1006300060E08CE07EDF60E088E07BDFC7E0D0E058
:1006400060E084E076DF8091570390E00C2E02C0DA
:10065000959587950A94E2F780FF02C061E001C09A
:1006600060E088E066DF61E084E063DF219740F7C7
:1006700061E08CE0DF91CF915CCFCF93DF9390E08E
:10068000FC01EE51FE4F2491FC01E456FE4F849193
:10069000882361F190E0880F991FFC01E85FFE4F0D
:1006A000C591D491FC01EE5DFE4FA591B49161110D
:1006B00009C09FB7F8948881209582238883EC91A4
:1006C0002E230BC0623061F49FB7F8943881822FDB
:1006D000809583238883EC912E2B2C939FBF06C09B
:1006E0008FB7F894E8812E2B28838FBFDF91CF91AD
:1006F00008953FB7F8948091530390915403A091CB
:100700005503B091560326B5A89B05C02F3F19F09D
:100710000196A11DB11D3FBFBA2FA92F982F882781
:10072000820F911DA11DB11DBC01CD0142E0660FDC
:10073000771F881F991F4A95D1F7089585ED8093FB
:10074000BC008091BC0084FDFCCF1092280308956A
:1007500040910203262F30E0240F311D2132310554
:10076000DCF4209128032430C9F4FC0180E090E0FF
:10077000861758F4309102032191DC01A052BD4F3D
:10078000A30FB11D2C930196F3CF80910203680F44
:100790006093020380E0089581E0089582E0089567
:1007A00008958FEF9FEF08958FEF9FEF0895809149
:1007B000DF0290E09195819591090895CF93DF93A1
:1007C0001F921F92CDB7DEB7CB01642F49835A83A6
:1007D000BFDF4981842F5A81952F0F900F90DF91B1
:1007E000CF910895CF93DF931F92CDB7DEB7698382
:1007F00061E0CE010196ACDF81E090E00F90DF91E7
:10080000CF910895089580E090E00895CF93DF930D
:10081000D62FC42FFC016083418361E08CE02DDF83
:1008200061E087E02ADF61E088E027DF61E084E0C3
:1008300024DF10925703FADE60E087E07ADED230E0
:1008400051F1A0F4D13009F04AC0F0DE809180006F
:10085000816880938000C770C860C0938100109247
:1008600089001092880061E08BE036C0D33021F11E
:10087000D430A9F5DBDE80919000816880939000F0
:10088000C770C860C09391001092990010929800B0
:1008900061E085E021C0CADE80919000896080938C
:1008A0009000C770C860C093910010929D00109294
:1008B0009C0061E083E010C0B9DE8091A0008168F7
:1008C0008093A000C770C860C093A1001092A900D7
:1008D0001092A80061E086E0DF91CF91CECEDF914B
:1008E000CF9108951F93CF93DF93EC01162F88814A
:1008F000803308F04CC061E0812FBFDE8881E82F93
:10090000F0E09F01220F331FE20FF31FE15BFD4F69
:100910001F739081907C192B108319821A826CE0CE
:10092000EFD69CE0899FB001112440E050E09A018D
:10093000260F371FF901EE0FFF1F2E0F3F1FF90182
:10094000E15BFD4F908196FD16C04F5F5F4F4C30CD
:10095000510569F7813001F51092800082E08093A3
:1009600081001092850010928400B19A80916F00EE
:10097000826080936F00E881F0E0CF01880F991FBB
:10098000E80FF91FE15BFD4F8081806480838881DF
:10099000DF91CF911F910895823061F41092900001
:1009A00080939100109295001092940088BB8093E0
:1009B0007100E1CF833069F41092A00082E080934F
:1009C000A1001092A5001092A40089BB8093720030
:1009D000D2CF8111D0CF1092200182E080932101EB
:1009E00010922501109224018ABB80937300C3CF1B
:1009F000FC0190914E029033A0F481E0890F809326
:100A00004E029083892F90E0FC01EE0FFF1F8E0FA6
:100A10009F1FFC01E15BFD4F88EB9BE0928381838C
:100A200008958FEF80830895CF92DF92EF92FF9227
:100A30000F931F93CF93DF936C018B017A01EC012D
:100A4000C65BDD4F888187FF04C0FB0111821082E5
:100A500024C08CE08C9D90018D9D300D11248881E7
:100A6000A901480F511D87FD5A9580914E0290E0D3
:100A70004817590794F48881A901480F511D87FD33
:100A80005A95CA01FA01EE0FFF1F8E0F9F1FFC013E
:100A9000E15BFD4F808186FD19C088818F5F88836F
:100AA0008CE08C9D90018D9D300D11248881A901D1
:100AB000480F511D87FD5A9580914E0290E04817CE
:100AC0005907B4F488818C303CF112C08881280F1A
:100AD000311D87FD3A95F901EE0FFF1F2E0F3F1FC5
:100AE000F901E15BFD4F808160E08F7322DDD5CF9E
:100AF000F80180819181049680349C4918F480E447
:100B00009CE904C0F801808191810496F7019183EA
:100B100080838FEF888344C0F801408151818881B0
:100B2000B901680F711D87FD7A95CB01FB01EE0FAE
:100B3000FF1F8E0F9F1FFC01E15BFD4F81819281A2
:100B4000840F951FF701918380838881A901480F45
:100B5000511D87FD5A95CA01FA01EE0FFF1F8E0F36
:100B60009F1FFC01E15BFD4F808186FF19C08881DA
:100B7000280F311D87FD3A95F901EE0FFF1F2E0F4B
:100B80003F1FF901E15BFD4F808161E08F73DF91D1
:100B9000CF911F910F91FF90EF90DF90CF90C9CC34
:100BA000DF91CF911F910F91FF90EF90DF90CF9049
:100BB00008950F931F9390E0FC01EE51FE4F649156
:100BC000FC01E456FE4FE491F0E0EE0FFF1FEE57FC
:100BD000FE4F8591949100E412E42FE030E040E074
:100BE00044D3611571058105910549F0DC01CB0104
:100BF0000196A11DB11DBC01CD019F7003C060E035
:100C000070E0CB011F910F9108951F93CF93DF9355
:100C1000EC01162F60E08AE18CDC60E08BE189DC7E
:100C2000812FC7DF688361E08AE183DC61E08BE1CB
:100C300080DC812FBEDF698360E08AE17ADC61E0DD
:100C40008BE177DC812FB5DF6A83DF91CF911F9134
:100C50000895009761F0FC0101900020E9F73197B9
:100C6000AF01481B590BBC0188E593E031CB80E014
:100C700090E008958F929F92AF92BF920F931F932F
:100C8000CF93DF93CDB7DEB7A1970FB6F894DEBF51
:100C90000FBECDBF19A2423008F44AE08E010F5DAD
:100CA0001F4F842E912CA12CB12CA501940106D5A7
:100CB000E62FB901CA0101501109EA3014F4E05DD0
:100CC00001C0E95CD801EC93232B242B252B69F779
:100CD000C801BFDFA1960FB6F894DEBF0FBECDBF2F
:100CE000DF91CF911F910F91BF90AF909F908F9008
:100CF0000895FC018081823049F018F4813079F048
:100D00000895833031F0843039F0089544E081E073
:100D100008C047E085E005C046E080E002C043E04F
:100D200082E021E030E0B90102C0660F771F8A95AA
:100D3000E2F7CB0101C0220F4A95EAF7822B80959A
:100D40009091570389238093570370CCEDD41F9261
:100D50000F920FB60F9211240BB60F922F933F9361
:100D60004F935F936F937F938F939F93AF93BF93B3
:100D7000EF93FF9388E593E01CDBFF91EF91BF9128
:100D8000AF919F918F917F916F915F914F913F9123
:100D90002F910F900BBE0F900FBE0F901F901895C4
:100DA0001F920F920FB60F9211240BB60F922F9332
:100DB0008F939F93EF93FF93E0916803F091690302
:100DC0008081E0916E03F0916F0382FD12C09081EB
:100DD000809171038F5F8F7320917203821751F09E
:100DE000E0917103F0E0E85AFC4F958F8093710316
:100DF00001C08081FF91EF919F918F912F910F9072
:100E00000BBE0F900FBE0F901F9018951F920F9260
:100E10000FB60F9211242F933F938F939F93AF930D
:100E2000BF9380914F0390915003A0915103B091D3
:100E3000520330914E0323E0230F2D3720F4019607
:100E4000A11DB11D05C026E8230F0296A11DB11DED
:100E500020934E0380934F0390935003A09351032C
:100E6000B09352038091530390915403A091550382
:100E7000B09156030196A11DB11D80935303909329
:100E80005403A0935503B0935603BF91AF919F9124
:100E90008F913F912F910F900FBE0F901F9018953B
:100EA0001F920F920FB60F9211240BB60F922F9331
:100EB0003F934F935F936F937F938F939F93AF93E2
:100EC000BF93EF93FF938091B900887F803609F438
:100ED0009CC068F5883209F45BC090F4803109F455
:100EE00054C038F4882309F4F6C0883009F44DC0A2
:100EF000F5C0883109F44CC0803209F45DC0EEC001
:100F0000803409F468C048F4803309F455C088334C
:100F100009F0E4C080932703D8C0803509F44FC09E
:100F2000883509F45DC0883409F0D8C0D6C0883946
:100F300009F4C7C0A8F4883709F467C038F48836C4
:100F400009F463C0803709F460C0C8C0883809F468
:100F5000B8C0803909F45FC0803809F0BFC05BC0F9
:100F6000803B09F486C038F4803A09F466C0883AB8
:100F700009F47FC0B3C0803C09F4A7C0883C09F4E1
:100F8000A4C0883B09F48AC0A9C080914D0310C059
:100F900090914C0380914B03981770F5E0914C03AE
:100FA00081E08E0F80934C03F0E0E55DFC4F808183
:100FB0008093BB0085EC86C0809327038EC0E091B0
:100FC0004C0381E08E0F80934C038091BB00F0E0D6
:100FD000E55DFC4F808390914C0380914B036EC084
:100FE000E0914C0381E08E0F80934C038091BB0015
:100FF000F0E0E55DFC4F808380912A0381116DC094
:1010000081E08093290384EA61C083E08093280310
:1010100010922603CFCF80912603803208F051C072
:10102000E091260381E08E0F809326038091BB0020
:10103000F0E0EA5FFC4F8083BDCF85EC8093BC007D
:101040001092280380912603803230F4E091260329
:10105000F0E0EA5FFC4F10826091260370E0E091BF
:101060000403F091050386E093E01995109226039E
:1010700035C084E08093280310920303109202038A
:10108000E0910003F0910103199580910203811111
:1010900005C081E0809302031092E002E091030317
:1010A00081E08E0F80930303F0E0E052FD4F8081DA
:1010B0008093BB009091030380910203981708F47A
:1010C00079CF85E88093BC0009C085EC8093BC0093
:1010D0001092280303C01092270330DBFF91EF9199
:1010E000BF91AF919F918F917F916F915F914F9140
:1010F0003F912F910F900BBE0F900FBE0F901F903E
:1011000018951F920F920FB60F9211240BB60F92E3
:101110002F933F934F935F936F937F938F939F93FF
:10112000AF93BF93EF93FF9348E251E064E271E025
:1011300080E090E079DCFF91EF91BF91AF919F91BA
:101140008F917F916F915F914F913F912F910F9070
:101150000BBE0F900FBE0F901F9018951F920F920D
:101160000FB60F9211240BB60F922F933F934F930C
:101170005F936F937F938F939F93AF93BF93EF93FF
:10118000FF9348EA50E064EA70E083E090E04CDCD2
:10119000FF91EF91BF91AF919F918F917F916F914F
:1011A0005F914F913F912F910F900BBE0F900FBE0B
:1011B0000F901F9018951F920F920FB60F92112447
:1011C0000BB60F922F933F934F935F936F937F9341
:1011D0008F939F93AF93BF93EF93FF9348E950E0B2
:1011E00064E970E082E090E01FDCFF91EF91BF9135
:1011F000AF919F918F917F916F915F914F913F91AF
:101200002F910F900BBE0F900FBE0F901F9018954F
:101210001F920F920FB60F9211240BB60F922F93BD
:101220003F934F935F936F937F938F939F93AF936E
:10123000BF93EF93FF9348E850E064E870E081E0EB
:1012400090E0F2DBFF91EF91BF91AF919F918F9171
:101250007F916F915F914F913F912F910F900BBEB6
:101260000F900FBE0F901F901895CF92DF92EF92C4
:10127000FF920F931F93E82FF92F05C0015011091A
:101280002109310961F1908196239417B9F305C0C2
:10129000015011092109310911F19081962394130C
:1012A000F7CFC12CD12CE12CF12C0AC08FEFC81A3A
:1012B000D80AE80AF80A0C151D052E053F0579F035
:1012C00080818623841791F36C2D7D2D8E2D9F2D8B
:1012D0001F910F91FF90EF90DF90CF90089560E005
:1012E00070E080E090E01F910F91FF90EF90DF9011
:1012F000CF900895CF93DF93E8E5F3E01382128255
:1013000088EE93E0A0E0B0E084839583A683B78362
:101310002BE032E03183208325EC30E035872487D1
:1013200024EC30E03787268720EC30E0318B208BAF
:1013300021EC30E0338B228B22EC30E0358B248B98
:1013400026EC30E0378B268B118E128E138E148E86
:10135000E5EFF3E01382128284839583A683B7833B
:101360008DE192E09183808310920104E3E1F4E047
:1013700084EB91E0DF019C011D9221503040E1F7A8
:1013800084E194E090935A05809359058BE595E0AC
:101390009093630580936205C3E0D2E042E06A81E6
:1013A00082E094E033DA42E06B8184E094E02EDA6C
:1013B00042E0688186E094E029DA42E0698188E0D1
:1013C00094E024DA8AE094E013DB8DE094E010DB13
:1013D00080E194E00DDBC0E0D2E0688170E08AE05B
:1013E00094E080DA698170E08DE094E07BDA6A81D4
:1013F00070E080E194E0DF91CF9174CACF93DF93E6
:1014000000D000D0CDB7DEB7789484B5826084BDBB
:1014100084B5816084BD85B5826085BD85B58160F8
:1014200085BD80916E00816080936E001092810076
:101430008091810082608093810080918100816031
:1014400080938100809180008160809380008091F2
:10145000B10084608093B1008091B000816080937E
:10146000B000809191008260809391008091910002
:1014700081608093910080919000816080939000C2
:101480008091A10082608093A1008091A100816081
:101490008093A1008091A00081608093A000809142
:1014A00021018260809321018091210181608093DC
:1014B00021018091200181608093200180917A0038
:1014C000846080937A0080917A00826080937A00B1
:1014D00080917A00816080937A0080917A008068A0
:1014E00080937A001092C10061E088E1C6D861E083
:1014F00089E1C3D861E08AE1C0D861E08BE1BDD861
:1015000060E08CE1BAD860E08DE1B7D861E088E1B5
:1015100010D860E089E10DD860E08EE1AED860E0DF
:101520008FE1ABD860E080E2A8D860E081E2A5D886
:1015300060E082E2A2D886E094E00E94470186E063
:1015400094E0D7DB88E094E00E94470188E094E0D3
:10155000D0DB82E094E00E94470182E094E0C9DBA6
:1015600084E094E00E94470184E094E0C2DBE091D3
:101570006803F091690382E08083E0916403F09155
:1015800065031082E0916603F09167038FEC80831E
:1015900010927003E0916C03F0916D0386E08083FC
:1015A000E0916A03F0916B03808180618083E09118
:1015B0006A03F0916B03808188608083E0916A0305
:1015C000F0916B03808180688083E0916A03F091E1
:1015D0006B0380818F7D80838BE292E03ADB84E431
:1015E00092E037DB6CE1CE0104960FDB6DE1CE01BA
:1015F00001960BDB698170E080E090E04AE03ADB25
:1016000087E492E026DB6A8170E080E090E04AE0C7
:1016100031DB87E492E01DDB6B8170E080E090E0DD
:101620004AE028DB84E492E014DB6C8170E080E027
:1016300090E04AE01FDB87E492E00BDB6D8170E015
:1016400080E090E04AE016DB87E492E002DB6E8106
:1016500070E080E090E04AE00DDB84E492E0F9DAAB
:1016600082E492E0F6DA84E492E0F3DA42D84B01C5
:101670005C018CE2C82EDD24D394E12CF12C39D806
:10168000DC01CB0188199909AA09BB09883E93405E
:10169000A105B10558F021E0C21AD108E108F1080E
:1016A00088EE880E83E0981EA11CB11CC114D104E1
:1016B000E104F10421F70E94610294CFA1E21A2E05
:1016C000AA1BBB1BFD010DC0AA1FBB1FEE1FFF1FE6
:1016D000A217B307E407F50720F0A21BB30BE40B36
:1016E000F50B661F771F881F991F1A9469F760957D
:1016F0007095809590959B01AC01BD01CF01089537
:10170000991B79E004C0991F961708F0961B881F53
:101710007A95C9F780950895EE0FFF1F881F8BBF3C
:101720000790F691E02D199481E090E0F89400C0C4
:04173000F894FFCF5B
:10173400090A020102030400000000FA016801938F
:10174400014002C401A201B60100000000F203DE60
:10175400030304D003D703D403D103737465617006
:10176400682F7265736375652D6C696E652F4F42C2
:0A177400520A0A000D0A002C2000A2
:00000001FF
