:1000000014C1000043C1000041C100003FC1000015
:100010003DC100003BC1000039C1000037C10000F4
:1000200035C1000033C1000031C100002FC1000004
:100030002DC100002BC1000029C1000027C1000014
:1000400025C100000C94100A21C100001FC100004E
:100050001DC100001BC1000019C1000011C5000036
:1000600015C100005AC300002FC300000FC10000DB
:100070000DC100000BC1000009C1000007C1000054
:100080000C94E30903C1000001C10000FFC000009F
:10009000FDC00000FBC00000F9C000003BC500002F
:1000A000F5C00000F3C000000C94B609EFC00000DA
:1000B000EDC00000EBC00000E9C000000C9489090D
:1000C000E5C00000E3C00000E1C00000DFC00000A8
:1000D000DDC00000DBC00000D9C00000D7C00000B8
:1000E000D5C0000068026B025A025E026402A202DE
:1000F0006F02730279027D02810287028B028F02F6
:10010000A202950299029D0200002100240027000E
:100110002A002D0030003300010100000401070116
:100120000A0100002200250028002B002E003100CB
:10013000340002010000050108010B0100000A0B58
:1001400002090C0D0E080703040100000000000066
:10015000000000000000000000000000000000009F
:10016000000000000000000012111000000000005C
:10017000000000000000000000000000000000007F
:100180000000000020002300260029002C002F0082
:100190003200000100000301060109010505050503
:1001A000070508080808020202020A0A08080404EF
:1001B000040401010101010101010303030303031D
:1001C0000303040707070C0C0C0C0C0C0C0C0202AC
:1001D000020206060606060606060B0B0B0B0B0BA9
:1001E0000B0B010210202008081020401020408036
:1001F00002010201080402010102040810204080EB
:100200008040201008040201800402018040201078
:1002100008040201080402010102040810204080C1
:100220000102040810204080491411241FBECFEFA2
:10023000D1E2DEBFCDBF00E00CBF12E0A0E0B2E033
:10024000EEE1F2E300E00BBF02C007900D92A83E82
:10025000B107D9F726E0A8EEB2E001C01D92AF3C8D
:10026000B207E1F711E0C5E1D1E000E006C0219757
:100270000109802FFE010E94E016C431D10780E001
:100280000807A9F70E94FA0D0C940D19B9CEFC01CC
:10029000538D448D252F30E0842F90E0821B930BEB
:1002A000541710F0CF96089501970895FC01918D91
:1002B000828D981761F0828DDF01A80FB11D5D96C8
:1002C0008C91928D9F5F9F73928F90E008958FEF36
:1002D0009FEF0895FC01918D828D981731F0828DEA
:1002E000E80FF11D858D90E008958FEF9FEF089541
:1002F000FC01918D228D892F90E0805C9F4F821BA5
:1003000091098F73992708958CE594E0F1DF21E03E
:10031000892B09F420E0822F0895FC01848DDF01F0
:10032000A80FB11DA35ABF4F2C91848D90E0019668
:100330008F739927848FA689B7892C93A089B18957
:100340008C9180648C93938D848D981306C0028861
:10035000F389E02D80818F7D80830895EF92FF9255
:100360000F931F93CF93DF93EC0181E0888F9B8DD8
:100370008C8D981305C0E889F989808185FD23C09B
:10038000F62E0B8D10E00F5F1F4F0F731127E02E1D
:100390008C8DE8120BC00FB607FCFACFE889F989FB
:1003A000808185FFF5CFCE01B8DFF2CF8B8DFE01C6
:1003B000E80FF11DE35AFF4FF0820B8FEA89FB89AA
:1003C0008081806207C0EE89FF896083E889F989AE
:1003D00080818064808381E090E0DF91CF911F91E4
:1003E0000F91FF90EF900895CF93DF93EC01888DEC
:1003F0008823C1F0EA89FB89808185FD05C0A88931
:10040000B9898C9186FD0EC00FB607FCF5CF8081AF
:1004100085FFF2CFA889B9898C9185FFEDCFCE01F8
:100420007CDFE8CFDF91CF91089580E090E0892BC9
:1004300019F06ADF811125C080E090E0892B41F03E
:1004400080E090E0892B21F00E94000081111CC007
:1004500080E090E0892B41F080E090E0892B21F052
:100460000E940000811113C080E090E0892BA1F070
:1004700080E090E0892B81F00E94000081110AC089
:1004800008950E940000D8CF0E940000E1CF0E9492
:100490000000EACF0C940000089590E0FC01319731
:1004A000E231F10508F04EC08827EE58FF4F8F4F1C
:1004B0000C94E016809180008F7703C080918000BB
:1004C0008F7D80938000089580918000877FF9CF91
:1004D00084B58F7702C084B58F7D84BD08958091E7
:1004E000B0008F7703C08091B0008F7D8093B00003
:1004F0000895809190008F7707C0809190008F7D44
:1005000003C080919000877F809390000895809130
:10051000A0008F7707C08091A0008F7D03C08091DD
:10052000A000877F8093A0000895809120018F779D
:1005300007C0809120018F7D03C080912001877FBB
:1005400080932001089585ED8093BC008091BC00CC
:1005500084FDFCCF1092360408954091C503262FE8
:1005600030E0240F311D21323105DCF420913604B6
:100570002430C9F4FC0180E090E0861758F43091F3
:10058000C5032191DC01AD55BC4FA30FB11D2C93C8
:100590000196F3CF8091C503680F6093C50380E097
:1005A000089581E0089582E008950895E091A203FE
:1005B0008091A103E81730F4F0E0EF57FC4F808101
:1005C00090E008958FEF9FEF08959091A20380919E
:1005D000A103981750F4E92FF0E0EF57FC4F20816A
:1005E00030E09F5F9093A20302C02FEF3FEFC9015D
:1005F00008958091A10390E02091A203821B9109AC
:100600000895CF92DF92EF92FF920F931F93CF93B3
:10061000DF937C01262F972F8A018091370488234E
:1006200091F0C62FD72F6E01C40ED51ECC15DD0557
:1006300069F06991D701ED91FC910190F081E02D75
:10064000C7011995F3CF642F822F87DFC801DF918F
:10065000CF911F910F91FF90EF90DF90CF90089571
:10066000CF93DF931F92CDB7DEB769832091370414
:100670002223D1F020915A04203240F021E030E0D2
:10068000FC013383228380E090E014C08091380421
:10069000E82FF0E0E75CFB4F998190838F5F8093B8
:1006A000380480935A0404C061E0CE01019655DFFE
:1006B00081E090E00F90DF91CF910895089580E060
:1006C00090E008950E94F9181F920F920FB60F92B2
:1006D00011240BB60F922F933F934F935F936F9319
:1006E0007F938F939F93AF93BF93EF93FF938CE58B
:1006F00094E013DEFF91EF91BF91AF919F918F91A5
:100700007F916F915F914F913F912F910F900BBE11
:100710000F900FBE0F901F9018951F920F920FB65B
:100720000F9211240BB60F922F938F939F93EF93F9
:10073000FF93E0916C04F0916D048081E09172046C
:10074000F091730482FD12C09081809175048F5FD7
:100750008F7320917604821751F0E0917504F0E0D8
:10076000E45AFB4F958F8093750401C08081FF91FF
:10077000EF919F918F912F910F900BBE0F900FBE15
:100780000F901F901895CF93DF93282F30E0F90139
:10079000E45CFE4F8491F901EE51FE4FD491F901D2
:1007A000E456FE4FC491CC2389F0811176DEEC2F04
:1007B000F0E0EE0FFF1FEE57FE4FA591B491EC91C4
:1007C000ED2381E090E021F480E002C080E090E041
:1007D000DF91CF9108951F93CF93DF93282F30E0BF
:1007E000F901E45CFE4F8491F901EE51FE4FD49182
:1007F000F901E456FE4FC491CC23C1F0162F8111AC
:100800004CDEEC2FF0E0EE0FFF1FEE5DFE4FA591EA
:10081000B4918FB7F894111105C09C91ED2FE0951C
:10082000E92302C0EC91ED2BEC938FBFDF91CF91C8
:100830001F910895CF92DF92EF92FF920F931F9333
:10084000CF93DF936C018B017A01EC01C451DD4F32
:10085000888187FF04C0FB011182108224C08CE0D4
:100860008C9D90018D9D300D11248881A901480F28
:10087000511D87FD5A958091F00290E04817590765
:1008800094F48881A901480F511D87FD5A95CA012A
:10089000FA01EE0FFF1F8E0F9F1FFC01EF50FD4F5F
:1008A000808186FD19C088818F5F88838CE08C9D54
:1008B00090018D9D300D11248881A901480F511D93
:1008C00087FD5A958091F00290E048175907B4F4DB
:1008D00088818C303CF112C08881280F311D87FD42
:1008E0003A95F901EE0FFF1F2E0F3F1FF901EF5050
:1008F000FD4F808160E08F736EDFD5CFF80180817E
:100900009181049680349C4918F480E49CE904C0E9
:10091000F801808191810496F701918380838FEFA4
:10092000888344C0F801408151818881B901680FF2
:10093000711D87FD7A95CB01FB01EE0FFF1F8E0F16
:100940009F1FFC01EF50FD4F81819281840F951F05
:10095000F701918380838881A901480F511D87FD8C
:100960005A95CA01FA01EE0FFF1F8E0F9F1FFC015F
:10097000EF50FD4F808186FF19C08881280F311DFF
:1009800087FD3A95F901EE0FFF1F2E0F3F1FF9016A
:10099000EF50FD4F808161E08F73DF91CF911F9108
:1009A0000F91FF90EF90DF90CF9015CFDF91CF9117
:1009B0001F910F91FF90EF90DF90CF900895CF930C
:1009C000DF9390E0FC01EE51FE4F2491FC01E456D0
:1009D000FE4F8491882361F190E0880F991FFC01FC
:1009E000E85FFE4FC591D491FC01EE5DFE4FA591ED
:1009F000B491611109C09FB7F89488812095822332
:100A00008883EC912E230BC0623061F49FB7F89479
:100A10003881822F809583238883EC912E2B2C9311
:100A20009FBF06C08FB7F894E8812E2B28838FBF15
:100A3000DF91CF9108953FB7F8948091EF039091A3
:100A4000F003A091F103B091F20326B5A89B05C075
:100A50002F3F19F00196A11DB11D3FBFBA2FA92F3D
:100A6000982F8827820F911DA11DB11DBC01CD01BA
:100A700042E0660F771F881F991F4A95D1F70895A6
:100A80001F920F920FB60F9211242F933F938F93C3
:100A90009F93AF93BF938091EB039091EC03A09150
:100AA000ED03B091EE033091EA0323E0230F2D37DD
:100AB00020F40196A11DB11D05C026E8230F029662
:100AC000A11DB11D2093EA038093EB039093EC03E7
:100AD000A093ED03B093EE038091EF039091F003A8
:100AE000A091F103B091F2030196A11DB11D809375
:100AF000EF039093F003A093F103B093F203BF913F
:100B0000AF919F918F913F912F910F900FBE0F90BA
:100B10001F9018951F920F920FB60F9211240BB6CB
:100B20000F922F933F934F935F936F937F938F9386
:100B30009F93AF93BF93EF93FF938091B900887F0A
:100B4000803609F49CC068F5883209F45BC090F4E3
:100B5000803109F454C038F4882309F4F6C0883091
:100B600009F44DC0F5C0883109F44CC0803209F455
:100B70005DC0EEC0803409F468C048F4803309F4E5
:100B800055C0883309F0E4C080933404D8C0803560
:100B900009F44FC0883509F45DC0883409F0D8C025
:100BA000D6C0883909F4C7C0A8F4883709F467C0EB
:100BB00038F4883609F463C0803709F460C0C8C0CF
:100BC000883809F4B8C0803909F45FC0803809F06A
:100BD000BFC05BC0803B09F486C038F4803A09F49A
:100BE00066C0883A09F47FC0B3C0803C09F4A7C04E
:100BF000883C09F4A4C0883B09F48AC0A9C080914C
:100C0000110410C09091330480913204981770F54C
:100C1000E091330481E08E0F80933304F0E0EE5EC8
:100C2000FB4F80818093BB0085EC86C080933404A9
:100C30008EC0E091330481E08E0F80933304809165
:100C4000BB00F0E0EE5EFB4F808390913304809117
:100C500032046EC0E091330481E08E0F8093330440
:100C60008091BB00F0E0EE5EFB4F80838091350405
:100C700081116DC081E08093100484EA61C083E03B
:100C8000809336041092E903CFCF8091E90380323C
:100C900008F051C0E091E90381E08E0F8093E903F1
:100CA0008091BB00F0E0E753FC4F8083BDCF85EC23
:100CB0008093BC00109236048091E903803230F4B6
:100CC000E091E903F0E0E753FC4F10826091E90303
:100CD00070E0E091C703F091C80389EC93E01995A7
:100CE0001092E90335C084E0809336041092C60365
:100CF0001092C503E091C303F091C403199580914C
:100D0000C503811105C081E08093C5031092A30340
:100D1000E091C60381E08E0F8093C603F0E0ED55AD
:100D2000FC4F80818093BB009091C6038091C503E6
:100D3000981708F479CF85E88093BC0009C085EC4A
:100D40008093BC001092360403C010923404FBDB85
:100D5000FF91EF91BF91AF919F918F917F916F9193
:100D60005F914F913F912F910F900BBE0F900FBE4F
:100D70000F901F901895AF92BF92CF92DF92EF9293
:100D8000FF920F931F93CF93DF931F921F92CDB7C4
:100D9000DEB7F82E5A0181E080933704F0925904AF
:100DA0001092380410925A0489EF94E029833A8310
:100DB00057DCD7D43A812981809136048111FCCF48
:100DC000902F013208F090E281E080933604809306
:100DD00035044FEF4093340410923304490F40938D
:100DE00032048093110480911104FF0CF82AF092D0
:100DF000110480911004813061F4109210048091EC
:100E000011048093BB008091BC0083FDF8CF85EC7A
:100E100001C085EE8093BC00809136048130E1F3FF
:100E200080913304891710F490913304A2E1B4E067
:100E300041E853E0FA018E2F841B891718F48D9135
:100E40008193F9CF1092A2039093A10368017901D5
:100E5000C114D104E104F10461F089EF94E0B5DB41
:100E6000F50181935F01F1E0CF1AD108E108F108A3
:100E7000EFCF80E090E00F900F90DF91CF911F9126
:100E80000F91FF90EF90DF90CF90BF90AF900895BB
:100E9000EF92FF920F931F93CF93DF931F921F92B6
:100EA000CDB7DEB77A01FC01EF5BFE4F02E010E048
:100EB00020E030E0AE014F5F5F4F80815CDF298131
:100EC00030E0322F22274A81242BF70131832083FF
:100ED000892B11F08CEE01C080E00F900F90DF9114
:100EE000CF911F910F91FF90EF9008950F931F9353
:100EF000FC01EF5BFE4F01E010E020E030E080817C
:100F00003ADF892B11F08CEE01C080E01F910F9128
:100F10000895AF92BF92CF92DF92EF92FF920F931C
:100F20001F93CF93DF931F921F92CDB7DEB75A0165
:100F300091E09093370480935904109238041092F2
:100F40005A0489EF94E029833A838ADB6801298176
:100F5000E22E3A81F32EC114D104E104F10461F0D0
:100F6000F50161915F0189EF94E07ADBF1E0CF1A3E
:100F7000D108E108F108EFCFF4D380E090E00F90C2
:100F80000F90DF91CF911F910F91FF90EF90DF9025
:100F9000CF90BF90AF9008950F931F93CF93DF939F
:100FA0001F92CDB7DEB7FC01EF5BFE4F8081498316
:100FB00001E010E020E030E0AE014F5F5F4FA9DFBD
:100FC000892B11F08CEE01C080E00F90DF91CF9162
:100FD0001F910F910895FC018081823079F018F4FF
:100FE000813031F00895833079F0843099F008959C
:100FF00070E07093890060938800089570E07093AA
:101000009D0060939C00089570E07093A900609328
:10101000A800089570E07093990060939800089577
:10102000FC018081823049F018F4813079F0089514
:10103000833031F0843039F0089524E031E008C085
:1010400027E035E005C026E030E002C023E032E0D2
:101050006230A9F0643029F16130B1F581E090E0AF
:10106000AC0101C0440F2A95EAF7409501C0880FF2
:101070003A95EAF790915B04892B842322C081E0A2
:1010800090E0AC0101C0440F3A95EAF7342F309557
:1010900040915B04342301C0880F2A95EAF7832B23
:1010A00010C041E050E0CA0101C0880F3A95EAF74C
:1010B00001C0440F2A95EAF7842B809590915B0438
:1010C000892380935B04D5C20895CF93DF93D62FF5
:1010D000C42FFC016083418361E08CE070DC61E03F
:1010E00087E06DDC61E088E06ADC61E084E067DC79
:1010F00010925B04BED260E087E06DDBD230A9F1D4
:10110000C8F4D13009F05FC080915B04837F809385
:101110005B04AFD280918000816880938000C770AB
:10112000C860C0938100109289001092880061E02D
:101130008BE046C0D33079F1D43009F044C08091BF
:101140005B048E7B80935B0494D2809190008168D5
:1011500080939000C770C860C0939100109299006E
:101160001092980061E085E02BC080915B048D7E39
:1011700080935B047ED28091900089608093900080
:10118000C770C860C093910010929D0010929C009F
:1011900061E083E015C080915B048F7580935B04F0
:1011A00068D28091A00081688093A000C770C86059
:1011B000C093A1001092A9001092A80061E086E0FF
:1011C000DF91CF91FCCBDF91CF9108951F93CF9307
:1011D000DF93EC01162F8881803308F04DC061E069
:1011E000812FEDDB8881E82FF0E09F01220F331F74
:1011F000E20FF31FEF50FD4F1F739081907C192B6E
:10120000108319821A826CE00E94C0169CE0899FAC
:10121000B001112440E050E09A01260F371FF90178
:10122000EE0FFF1F2E0F3F1FF901EF50FD4F908172
:1012300096FD16C04F5F5F4F4C30510569F7813006
:1012400001F51092800082E0809381001092850069
:1012500010928400B19A80916F00826080936F0039
:10126000E881F0E0CF01880F991FE80FF91FEF50D8
:10127000FD4F8081806480838881DF91CF911F91B1
:101280000895823061F41092900080939100109242
:1012900095001092940088BB80937100E1CF833059
:1012A00069F41092A00082E08093A1001092A50042
:1012B0001092A40089BB80937200D2CF8111D0CF4D
:1012C0001092200182E0809321011092250110925A
:1012D00024018ABB80937300C3CFFC019091F0027C
:1012E0009033A0F481E0890F8093F0029083892FDE
:1012F00090E0FC01EE0FFF1F8E0F9F1FFC01EF50CF
:10130000FD4F88EB9BE09283818308958FEF80836C
:1013100008951F920F920FB60F9211240BB60F92E1
:101320002F933F934F935F936F937F938F939F93ED
:10133000AF93BF93EF93FF9348E251E064E271E013
:1013400080E090E077DAFF91EF91BF91AF919F91AC
:101350008F917F916F915F914F913F912F910F905E
:101360000BBE0F900FBE0F901F9018951F920F92FB
:101370000FB60F9211240BB60F922F933F934F93FA
:101380005F936F937F938F939F93AF93BF93EF93ED
:10139000FF9348EA50E064EA70E083E090E04ADAC4
:1013A000FF91EF91BF91AF919F918F917F916F913D
:1013B0005F914F913F912F910F900BBE0F900FBEF9
:1013C0000F901F9018951F920F920FB60F92112435
:1013D0000BB60F922F933F934F935F936F937F932F
:1013E0008F939F93AF93BF93EF93FF9348E950E0A0
:1013F00064E970E082E090E01DDAFF91EF91BF9127
:10140000AF919F918F917F916F915F914F913F919C
:101410002F910F900BBE0F900FBE0F901F9018953D
:101420001F920F920FB60F9211240BB60F922F93AB
:101430003F934F935F936F937F938F939F93AF935C
:10144000BF93EF93FF9348E850E064E870E081E0D9
:1014500090E0F0D9FF91EF91BF91AF919F918F9163
:101460007F916F915F914F913F912F910F900BBEA4
:101470000F900FBE0F901F9018950F931F93CF934F
:10148000DF93C82F61E09BDA60E08C2FA4D983E062
:1014900090E00197F1F761E08C2F9DD98FE090E00B
:1014A0000197F1F760E08C2F96D960E08C2F87DAF6
:1014B00061E08C2F90D961E08C2F02D10E94DB1467
:1014C00026E933E44BE05DE30E943C1520E030E088
:1014D00040E05FE30E943C158B01D82FC92F20E02C
:1014E00030E0A9010E94D71487FD10C020E030E051
:1014F00048E453E4B8018D2F9C2F0E94BC161816A7
:101500004CF400E010E0D8E4C3E404C000E010E0D4
:10151000D0E0C0E0B8018D2F9C2FDF91CF911F91BB
:101520000F9108951092F6031092F5031092F303B1
:101530001092F4030895FC0140815181FB01A081C8
:10154000B18120E030E09D9180ED890F823048F438
:1015500081E0FA01E20FF31F6081961719F080E035
:1015600001C081E02F5F3F4F2530310511F081111F
:10157000EACF08950F931F93CF93C82F60E08AE1BD
:101580002AD960E08BE127D90091E8021091E902A5
:1015900060E08C2F95D0F801608361E08AE11BD96F
:1015A00061E08BE118D90091E8021091E90260E056
:1015B0008C2F86D0F801618360E08AE10CD961E06C
:1015C0008BE109D90091E8021091E90260E08C2FCB
:1015D00077D0F8016283E091E802F091E902F0939C
:1015E000EB02E093EA02808141818B3A28F04B3A8A
:1015F00018F092819B3A78F450E090E0841B950BB0
:1016000045975CF0238130E0241B350B81E02531C8
:10161000310524F402C082E001C080E0CF911F9127
:101620000F9108950F931F93CF93DF93EC0188815F
:101630009981009729F02A813B812617370788F482
:101640008B016F5F7F4F0E941518009761F099839F
:1016500088831B830A832C813D81232B11F4FC0199
:10166000108281E001C080E0DF91CF911F910F9146
:101670000895CF93DF9360E08CE0ADD860E088E020
:10168000AAD8C7E0D0E060E084E0A5D880915B04F0
:1016900090E00C2E02C0959587950A94E2F780FFA2
:1016A00002C061E001C060E088E095D861E084E0BC
:1016B00092D8219740F761E08CE0DF91CF918BC801
:1016C0000F931F93262F90E0FC01EE51FE4F649183
:1016D000FC01E456FE4FE491222311F0462F01C095
:1016E00040E0F0E0EE0FFF1FEE57FE4F8591949122
:1016F00000E412E42FE030E038D261157105810575
:10170000910549F0DC01CB010196A11DB11DBC0181
:10171000CD019F7003C060E070E0CB011F910F917D
:101720000895CF93DF93009771F0FC0101900020A2
:10173000E9F73197AF01481B590BBC018CE594E0E8
:10174000BCD1EC0102C0C0E0D0E042E050E065EE68
:1017500072E08CE594E0B1D18C0F9D1FDF91CF91A9
:10176000089520915A0490915904213208F04AC0FA
:10177000809136048111FCCF32E03093360431E0A1
:10178000309335043FEF30933404109233042093A8
:101790003204A9E3B4E042E154E0FA013E2F341BE5
:1017A000321718F43D913193F9CF10921104209122
:1017B0001104990F922B9093110490911004913081
:1017C00061F410921004909111049093BB009091D9
:1017D000BC0093FDF8CF95EC01C095EE9093BC0052
:1017E000909136049230E1F3909134049F3F79F068
:1017F00080913404803241F080913404803331F0A0
:1018000084E005C081E003C082E001C083E0109263
:10181000380410925A041092370408950F931F93BE
:10182000CF93DF931F921F92CDB7DEB7FC01E25337
:10183000FF4F20812150233078F48C01AE014F5F9F
:101840005F4F6EE025DB811108C0AE014F5F5F4F37
:101850006CE0C8011DDB01C080E00F900F90DF91AC
:10186000CF911F910F91089560E08AE095E0B3DB7E
:1018700064E08AE095E0D4DB60E08CE095E0ABDBEF
:1018800064E08CE095E0CCDB60E086E095E0A3DBF3
:1018900064E086E095E0C4DB60E088E095E09BDBF7
:1018A00064E088E095E0BCCB0F931F93CF93DF9368
:1018B000082FD62F811102C014E001C011E0D11110
:1018C00002C0C4E001C0C1E0602F8AE095E083DB84
:1018D000612F8AE095E0A4DB602F8CE095E07BDB54
:1018E000612F8CE095E09CDB6D2F86E095E073DB4B
:1018F0006C2F86E095E094DB6D2F88E095E06BDB44
:101900006C2F88E095E0DF91CF911F910F9188CBEC
:101910008F929F92AF92BF92CF92DF92EF92FF92FF
:101920005C016A017B01A0DF68EC86E095E053DB97
:1019300068EC88E095E04FDB68EC8AE095E04BDBF3
:1019400068EC8CE095E047DBAB2871F461E08AE05D
:1019500095E066DB61E08CE095E062DB62E086E0CA
:1019600095E05EDB62E00DC062E08AE095E058DB66
:1019700062E08CE095E054DB61E086E095E050DBCE
:1019800061E088E095E04CDBC114D104E104F1048E
:1019900041F151D84B015C014ED8DC01CB018819D3
:1019A0009909AA09BB09883E9340A105B105A0F396
:1019B00021E0C21AD108E108F10888EE880E83E020
:1019C000981EA11CB11CC114D104E104F10421F73B
:1019D000FF90EF90DF90CF90BF90AF909F908F904F
:1019E00043CFFF90EF90DF90CF90BF90AF909F904C
:1019F0008F900895EF92FF920F931F93CF93DF93F1
:101A00006115710511F480E022C0FB0101900020F6
:101A1000E9F73197E61BF70BDC0114960D911C9149
:101A20001597309799F07B01EC010E0F1F1FB8013D
:101A3000F9DD882341F3288139818C819D81B701AB
:101A4000820F931F0E9406191D830C8381E0DF9192
:101A5000CF911F910F91FF90EF900895EF92FF9219
:101A60000F931F93CF93DF93EC017B018A01BA019F
:101A7000D9DD2881398181110DC02115310519F079
:101A8000C9010E947D17198218821D821C821B8247
:101A90001A8206C01D830C83B701C9010E94061972
:101AA000CE01DF91CF911F910F91FF90EF9008959C
:101AB000FC01808191810C947D17CF92DF92EF928F
:101AC000FF920F931F93CF93DF936C017A018B01E9
:101AD000C0E0D0E0CE15DF0589F0D8016D918D0111
:101AE000D601ED91FC910190F081E02DC601199590
:101AF000892B11F47E0102C02196ECCFC701DF9142
:101B0000CF911F910F91FF90EF90DF90CF900895AC
:101B1000FB01DC0111961C921E9213961C921E92E0
:101B2000129715961C921E9214978617970741F0EC
:101B3000608171816115710519F0448155818ECFE5
:101B40000895FC0111821082138212821582148280
:101B50006115710549F0FB0101900020E9F731970B
:101B6000AF01461B570B7ACF0895CF92DF92EF92C9
:101B7000FF920F931F93E82FF92F05C00150110911
:101B80002109310961F1908196239417B9F305C0B9
:101B9000015011092109310911F190819623941303
:101BA000F7CFC12CD12CE12CF12C0AC08FEFC81A31
:101BB000D80AE80AF80A0C151D052E053F0579F02C
:101BC00080818623841791F36C2D7D2D8E2D9F2D82
:101BD0001F910F91FF90EF90DF90CF90089560E0FC
:101BE00070E080E090E01F910F91FF90EF90DF9008
:101BF000CF900895CF93DF93CDB7DEB7C354D1090B
:101C00000FB6F894DEBF0FBECDBF789484B5826066
:101C100084BD84B5816084BD85B5826085BD85B590
:101C2000816085BD80916E00816080936E0010920E
:101C30008100809181008260809381008091810089
:101C4000816080938100809180008160809380001A
:101C50008091B10084608093B1008091B000816078
:101C60008093B00080919100826080939100809178
:101C700091008160809391008091900081608093B9
:101C800090008091A10082608093A1008091A100CA
:101C900081608093A1008091A00081608093A0006A
:101CA00080912101826080932101809121018160D6
:101CB0008093210180912001816080932001809197
:101CC0007A00846080937A0080917A0082608093A9
:101CD0007A0080917A00816080937A0080917A0006
:101CE000806880937A001092C10061E088E10E94D0
:101CF000DF0461E089E10E94DF0461E08AE10E9483
:101D0000DF0461E08BE10E94DF0460E08CE10E946F
:101D1000DF0460E08DE10E94DF0461E088E10E9461
:101D2000EB0360E089E10E94EB0360E08EE10E943A
:101D3000DF0460E08FE10E94DF0460E080E20E9447
:101D4000DF0460E081E20E94DF0460E082E20E9442
:101D5000DF048ADDE0916C04F0916D0482E0808301
:101D6000E0916804F09169041082E0916A04F091B6
:101D70006B048FEC808310927404E0917004F091F6
:101D8000710486E08083E0916E04F0916F0480819D
:101D900080618083E0916E04F0916F04808188609F
:101DA0008083E0916E04F0916F048081806880836D
:101DB000E0916E04F0916F0480818F7D808381E3D8
:101DC00092E0AFDCE0905D06F0905E06D7015096A1
:101DD0001C9241E060E8C701DFD841E06FEFC70126
:101DE000DBD840E060E0C701D7D8F701E95DFE4FDE
:101DF000408161E9C701D0D841E060E0C701CCD89B
:101E000040E06FEFC701C8D840E060E8C701C4D820
:101E100041E060E0C701C0D891E09983811122C000
:101E2000812C912C5401BFEF8B1A9B0AAB0ABB0A81
:101E3000998190FF10C081118FC2E8EC8E16910439
:101E4000A104B10409F488C2AE014F5F5F4F60E0A6
:101E5000C7014CD8E8CFF8EC8F169104A104B10467
:101E600009F47AC2811178C2A12CB12C87010253E6
:101E70001F4FD8018C91AE014F5F5F4F843069F4E2
:101E800063E1C70133D89981292F2770987109F030
:101E90008AEF91E0243049F409C064E1C70126D8F3
:101EA000811103C09981917003C090E0811154C2E7
:101EB000913019F1B7ECAB16B10409F44DC21AAA6E
:101EC0001BAA1CAA1DAA8AA99BA9ACA9BDA98A3FC5
:101ED0009105A105B10568F400008AA99BA9ACA9E8
:101EE000BDA90196A11DB11D8AAB9BABACABBDAB2F
:101EF000EACFEFEFAE1ABE0ABCCF83E0F701E15E96
:101F0000FE4F80830CE010E020E030E0AE01465E42
:101F10005F4F64E1B29680810E94BB06892B09F075
:101F20001BC210920D041092F7031092F803109246
:101F3000F9031092FA032CA130E0322F22278DA151
:101F4000280F311D1092FB031092FC031092FD0329
:101F50001092FE03E9A1F0E0FE2FEE27FF0F4F01E4
:101F6000A12CB12C8092030490920404A092050449
:101F7000B09206048BA190E0982F8827990FA0E0DB
:101F8000B0E08093070490930804A0930904B093F1
:101F90000A048C8D90E0982F88274D8D6C01C40E1B
:101FA000D11CD0920C04C0920B041A8DD701A75CEF
:101FB000BE4F4D915C9111975B970C91483E83E029
:101FC0005807F9F0249FC001259F900D349F900D74
:101FD00011248C509E4F68EE73E0DED69B01D70132
:101FE0005D968D919D910D90BC91A02D24968CAF06
:101FF0009DAFAEAFBFAF2497D7015A964C91411118
:10200000D6C3002309F4F5C3C90196958795969523
:102010008795909300048093FF032295220F220F4F
:10202000207C20930E041A8219821877212E312CDD
:10203000A3E035942794AA95E1F72DAE211431043D
:1020400009F4DEC3822D8D7F853009F4DCC3B1E055
:10205000BAAF84EF820D843008F01AAE41E06FEF22
:10206000C7010E94CC07811107C0AE014F5F5F4FCF
:1020700066EBC7010E9448079981990F9FAF1EAE7A
:102080002EAD3FAD2901612C712C811105C040E0BE
:102090006FEFC7010E94CC07F701EE5CFE4F408254
:1020A0005182628273828111ECC3D7019596BC91F3
:1020B000BBAFBB2309F4B6C3809103049091040421
:1020C000A0910504B09106048EAB9FABA8AFB9AF49
:1020D000D7015A968C91882309F498C3A0910B04D8
:1020E000B0910C04F701258D368D478D50A178D520
:1020F000DC01CB0180589F4FAF4FBF4F892F9A2FE4
:10210000AB2FBB272EA93FA948AD59AD280F391FCA
:102110004A1F5B1FA8EEB3E063D5DC01CB019058EA
:10212000AF4FBF4FCD01AA27BB27F701E65DFE4F9A
:10213000892B8A2B8B2B09F06DC38EEA97E8AFE8C9
:10214000B2E080839183A283B3834EEA57E86FE8BD
:1021500072E01092020410920104F70181A992A981
:10216000A3A9B4A90097A105B10509F45BC301E0D7
:1021700084179507A607B70708F054C3D7019796A9
:10218000BC91BCAFBB2309F44FC3F70181AD92AD45
:10219000A3ADB4AD0097A105B10509F445C311E0A5
:1021A00084159505A605B70508F03EC3D701989696
:1021B0004C90442009F43EC3C114D10409F436C341
:1021C0009A2D892D782D6627960140E050E012D592
:1021D000F701FD9680809180A280B38081149104E4
:1021E000A104B10409F426C381E0281539054A0584
:1021F0005B0508F01FC3BAAD9FEFB13009F43CC3D3
:10220000920D933008F426C3EDADE63009F424C3F3
:10221000E93009F424C3922D9D7F983009F422C33C
:10222000113009F422C3E43009F422C3813009F4E7
:1022300022C3013009F422C3109202041092010457
:102240001EAA00E080E010E0D70196962C91BBAD6D
:10225000B11101C001E0F70103A791E0F4E02F16EE
:10226000310409F0E9C2D7019C969C93BCADB11131
:1022700001C011E0F70115A7411001C081E0D701AD
:102280009E968C93BEA9B0930F0429E1C701865B8B
:102290009F4FFC01DE01119601900D922A95E1F706
:1022A000A091FF03B091000410910E04E09101048D
:1022B000F09102048090030490900404A09005041F
:1022C000B0900604409107045091080460910904FD
:1022D00070910A0420910B0430910C044090FB0390
:1022E0005090FC036090FD037090FE034D825E826F
:1022F0006F827886BA87A987FC87EB878D869E8652
:10230000AF86B88A498B5A8B6B8B7C8B3E8B2D8B1F
:10231000188FEEA9E98F29E1FE013196DC010190C9
:102320000D922A95E1F703E041E06BE0C7010E94BE
:10233000CC07182F40E06BE0C7010E94CC07C82EE5
:10234000AE014F5F5F4F63E1C7010E947607982F90
:102350002981277009F075C280910F04843051F4EF
:102360006091FF037091000480E090E024D34B0162
:102370005C0106C0812C912C60E8A62E6FEBB62E76
:102380008CE190E0F7D8082F8DE190E0F3D8182F7A
:1023900069E472E0CE018C96D4DB8EE10E94C30327
:1023A000019719F069EB72E002C065EC72E0CE01B2
:1023B0008C9620DB8FE10E94C303019719F069EB33
:1023C00072E002C065EC72E0CE018C9613DB80E215
:1023D0000E94C303019719F069EB72E002C065EC3B
:1023E00072E0CE018C9606DB81E20E94C303019766
:1023F00019F069EB72E002C065EC72E0CE018C96D8
:10240000F9DA82E20E94C303019719F069EB72E0E6
:1024100002C065EC72E0CE018C96ECDA20E030E090
:10242000A901C501B401A8D41816ACF420E030E02D
:1024300040E251E4C501B401BAD2181664F08AE44E
:1024400092E06FD911DA6ED886E190E016D887E174
:1024500090E013D8A6C10130C9F4113051F48EE5D3
:1024600092E05FD901DA5ED840EA5FE060E070E0B8
:1024700018C086E792E055D9F7D954D840ED57E017
:1024800060E070E081E090E043DA8BC1113061F4EC
:102490008CE892E046D9E8D945D840ED57E060E0B5
:1024A00070E080E090E0F0CF63EA72E0CE01019648
:1024B00048DBBE01645D7F4FCE014A9629DBBE0139
:1024C0006F5F7F4FCE014A9636D8182FCE014A96BD
:1024D000EFDACE010196ECDA112319F066EE86EE02
:1024E0005FC169EA72E0CE0101962BDBBE01645D3B
:1024F0007F4FCE014A960CDBBE016F5F7F4FCE014E
:102500004A9619D8182FCE014A96D2DACE010196F2
:10251000CFDA1111E3CFBE01645D7F4FCE01869605
:10252000F7DA6FEA72E0CE0101960BDBBE016A5D5D
:102530007F4FCE014A96ECDABE016F5F7F4FCE012E
:102540004A960E949B0A182FCE014A96B1DACE0114
:102550000196AEDA1111D9C065EB72E0CE01019699
:10256000F0DABE016A5D7F4FCE014A96D1DABE0134
:102570006F5F7F4FCE014A960E949B0A182FCE01B3
:102580004A9696DACE01019693DA1111C0C06BEB30
:1025900072E0CE014A96D5DABE016A5D7F4FCE0168
:1025A0000196B6DABE01665E7F4FCE0101960E94AB
:1025B0009B0A182FCE0101967BDACE014A9678DA73
:1025C0001111A7C061EC72E0CE014A96BADABE01E1
:1025D0006A5D7F4FCE0101969BDABE01665E7F4F3A
:1025E000CE0101960E949B0A182FCE01019660DA57
:1025F000CE014A965DDA11118EC067EC72E0CE0111
:102600004A969FDABE016A5D7F4FCE01019680DA5D
:10261000BE01665E7F4FCE0101960E949B0A182F75
:10262000CE01019645DACE014A9642DA111175C003
:102630006DEC72E0CE014A9684DABE016A5D7F4F8E
:10264000CE01019665DABE01665E7F4FCE0101962E
:102650000E949B0A182FCE0101962ADACE014A96D3
:1026600027DA11115CC063ED72E0CE014A9669DA97
:10267000BE016A5D7F4FCE0101964ADABE01665EF9
:102680007F4FCE0101960E949B0A182FCE01019622
:102690000FDACE014A960CDA111143C069ED72E0EF
:1026A000CE014A964EDABE016A5D7F4FCE01019699
:1026B0002FDABE01665E7F4FCE0101960E949B0A13
:1026C000182FCE010196F4D9CE014A96F1D91111F5
:1026D0002AC06FED72E0CE014A9633DABE016A5D20
:1026E0007F4FCE01019614DABE01665E7F4FCE01A8
:1026F00001960E949B0A182FCE010196D9D9CE01CE
:102700004A96D6D9111111C002C064E00FC063E02F
:102710000DC062E00BC061E009C060E007C06FEF70
:1027200005C06EEF03C06DEF01C06CEF6093F60360
:102730000091F503060F0093F5038091F403162F23
:10274000181B1093F3036093F40370E080E090E0B3
:1027500034D14B015C01602F70E080E090E02DD11E
:102760002DEC3CEC4CEC5DE387D19B01AC01C50149
:10277000B40172D24B015C01612F70E080E090E007
:102780001CD19B01AC01C501B40166D2C9D2162F80
:10279000CE0186968DD996EE692F611B86EE810F4C
:1027A00083D8CE018C9684D90E9415020BCBC89E8B
:1027B0002001C99E500CD89E500C1124452C552444
:1027C000612C712C84149504A604B70429F401111A
:1027D0000DC020EE3AE80DC0DF012ED2A501940114
:1027E000241935094609570905D20BCC28EB32E2EA
:1027F0000BCC309300042093FF0310920E0413CCF3
:10280000E1E0EAAF2BCCF1E0FAAF28CC80E090E039
:10281000DC0178CC108211821282138240E050E0F9
:10282000BA0197CC00E0AACC10E0C0CC20E030E0A8
:10283000A901CECC80E0DFCC222309F414CD90E0B6
:1028400012CD015009F488CD8C2D812B892B09F4F0
:102850006BCD82CDA5E013C0B4E0BEABF5CCE4E017
:10286000EEABF2CCF3E0FEABEFCC23E02EABECCC46
:1028700032E03EABE9CC92E09EABE6CCA1E0AEAB61
:10288000E3CCBEA91BAE1CAE412CBB2309F4D4CCB7
:10289000D8CCCF93DF93ECE5F4E01382128288EE7C
:1028A00093E0A0E0B0E084839583A683B78321E121
:1028B00032E03183208325EC30E03587248724EC17
:1028C00030E03787268720EC30E0318B208B21ECFD
:1028D00030E0338B228B22EC30E0358B248B26ECDE
:1028E00030E0378B268B118E128E138E148EE9EF0B
:1028F000F4E01382128284839583A683B78383E2F4
:1029000092E09183808310920505E7E1F5E084EB86
:1029100091E0DF019C011D9221503040E1F788E1F8
:1029200095E090935E0680935D068FE596E0909328
:10293000670680936606C3E0D2E042E06A8186E0E3
:1029400095E00E94650842E06B8188E095E00E9476
:10295000650842E068818AE095E00E94650842E0EF
:1029600069818CE095E00E9465088EE095E00E9408
:102970006D0981E195E00E946D0984E195E00E9476
:102980006D09C0E0D2E0688170E08EE095E00E94C1
:10299000E608698170E081E195E00E94E6086A81BD
:1029A00070E084E195E0DF91CF910C94E60840D08F
:1029B00008F481E00895E89409C097FB3EF49095EF
:1029C0008095709561957F4F8F4F9F4F9923A9F008
:1029D000F92F96E9BB279395F69587957795679597
:1029E000B795F111F8CFFAF4BB0F11F460FF1BC0DB
:1029F0006F5F7F4F8F4F9F4F16C0882311F096E96E
:102A000011C0772321F09EE8872F762F05C066231B
:102A100071F096E8862F70E060E02AF09A95660FD4
:102A2000771F881FDAF7880F9695879597F908958D
:102A3000990F0008550FAA0BE0E8FEEF16161706CF
:102A4000E807F907C0F012161306E407F50798F037
:102A5000621B730B840B950B39F40A2661F0232B50
:102A6000242B252B21F408950A2609F4A140A695CC
:102A70008FEF811D811D08950BD078C069D028F09B
:102A80006ED018F0952309F05AC05FC01124A2C07F
:102A90007ED0A0F3959FD1F3950F50E0551F629F14
:102AA000F001729FBB27F00DB11D639FAA27F00DA7
:102AB000B11DAA1F649F6627B00DA11D661F829FCE
:102AC0002227B00DA11D621F739FB00DA11D621FB3
:102AD000839FA00D611D221F749F3327A00D611DD0
:102AE000231F849F600D211D822F762F6A2F1124B2
:102AF0009F5750408AF0E1F088234AF0EE0FFF1F05
:102B0000BB1F661F771F881F91505040A9F79E3F3B
:102B1000510570F014C05EC05F3FECF3983EDCF3EB
:102B2000869577956795B795F795E7959F5FC1F778
:102B3000FE2B880F911D9695879597F9089597F923
:102B40009F6780E870E060E008959FEF80EC089553
:102B500000240A941616170618060906089500247C
:102B60000A9412161306140605060895092E0394F6
:102B7000000C11F4882352F0BB0F40F4BF2B11F46A
:102B800060FF04C06F5F7F4F8F4F9F4F089557FDC9
:102B90009058440F551F59F05F3F71F04795880FCB
:102BA00097FB991F61F09F3F79F087950895121662
:102BB00013061406551FF2CF4695F1DF08C016160E
:102BC00017061806991FF1CF8695710561050894BF
:102BD0000895E894BB2766277727CB0197F90895D6
:102BE0002BD0A59F900DB49F900DA49F800D911D9B
:102BF00011240895A1E21A2EAA1BBB1BFD010DC0D2
:102C0000AA1FBB1FEE1FFF1FA217B307E407F5079C
:102C100020F0A21BB30BE40BF50B661F771F881F78
:102C2000991F1A9469F760957095809590959B010E
:102C3000AC01BD01CF010895A29FB001B39FC001B7
:102C4000A39F700D811D1124911DB29F700D811DD8
:102C50001124911D08955058BB27AA270ED086CF66
:102C600077DF30F07CDF20F031F49F3F11F41EF469
:102C70006CCF0EF4E095E7FB62CFE92F88DF80F39D
:102C8000BA17620773078407950718F071F49EF569
:102C9000A0CF0EF4E0950B2EBA2FA02D0B01B90199
:102CA00090010C01CA01A0011124FF27591B99F0C2
:102CB000593F50F4503E68F11A16F040A22F232FCE
:102CC000342F4427585FF3CF469537952795A7951E
:102CD000F0405395C9F77EF41F16BA0B620B730BC5
:102CE000840BBAF09150A1F0FF0FBB1F661F771F36
:102CF000881FC2F70EC0BA0F621F731F841F48F4EB
:102D0000879577956795B795F7959E3F08F0B3CF70
:102D10009395880F08F09927EE0F9795879508955A
:102D20003EDF88F09F5790F0B92F9927B751A0F058
:102D3000D1F0660F771F881F991F1AF0BA95C9F74F
:102D400012C0B13081F045DFB1E0089542CF672F66
:102D5000782F8827B85F39F0B93FCCF386957795FF
:102D60006795B395D9F73EF49095809570956195E8
:102D70007F4F8F4F9F4F08955BDE08F48FEF0895CC
:102D8000991B79E004C0991F961708F0961B881FBD
:102D90007A95C9F780950895AA1BBB1B51E107C01E
:102DA000AA1FBB1FA617B70710F0A61BB70B881FDB
:102DB000991F5A95A9F780959095BC01CD0108956A
:102DC000EE0FFF1F881F8BBF0790F691E02D19941F
:102DD000CF93DF938230910510F482E090E0E09190
:102DE000CD06F091CE0620E030E0C0E0D0E0309794
:102DF00011F14081518148175907C0F04817590710
:102E000061F482819381209719F09B838A832BC080
:102E10009093CE068093CD0626C02115310519F07A
:102E20004217530718F49A01BE01DF01EF01028037
:102E3000F381E02DDCCF2115310509F1281B390B79
:102E40002430310590F412968D919C911397611561
:102E5000710521F0FB019383828304C09093CE0619
:102E60008093CD06FD01329644C0FD01E20FF31FB1
:102E700081939193225031092D933C933AC0209134
:102E8000CB063091CC06232B41F4209109023091DE
:102E90000A023093CC062093CB0620910702309192
:102EA00008022115310541F42DB73EB740910B02C0
:102EB00050910C02241B350BE091CB06F091CC060F
:102EC000E217F307A0F42E1B3F0B2817390778F001
:102ED000AC014E5F5F4F2417350748F04E0F5F1F60
:102EE0005093CC064093CB068193919302C0E0E0CF
:102EF000F0E0CF01DF91CF9108950F931F93CF930F
:102F0000DF93009709F48CC0FC0132971382128280
:102F10000091CD061091CE060115110581F4208196
:102F20003181820F931F2091CB063091CC06281758
:102F3000390779F5F093CC06E093CB0671C0D80140
:102F400040E050E0AE17BF0750F412962D913C912F
:102F50001397AD012115310509F1D901F3CF9D0179
:102F6000DA013383228360817181860F971F821774
:102F7000930769F4EC0128813981260F371F2E5FF2
:102F80003F4F318320838A819B8193838283452BAA
:102F900029F4F093CE06E093CD0642C01396FC933D
:102FA000EE931297ED01499159919E01240F351F1F
:102FB000E217F30771F480819181840F951F0296C7
:102FC00011969C938E938281938113969C938E93FA
:102FD0001297E0E0F0E0D80112968D919C91139742
:102FE000009719F0F8018C01F6CF8D919C91980112
:102FF0002E5F3F4F820F931F2091CB063091CC065E
:103000002817390769F4309729F41092CE061092E8
:10301000CD0602C0138212821093CC060093CB0619
:10302000DF91CF911F910F9108956F927F928F92B0
:103030009F92AF92BF92CF92DF92EF92FF920F9347
:103040001F93CF93DF93EC01009781F4CB01DF91C5
:10305000CF911F910F91FF90EF90DF90CF90BF9095
:10306000AF909F908F907F906F90B2CEFC01E60F53
:10307000F71F9C0122503109E217F30708F4A8C09A
:10308000D9010D911C91119706171707A8F005306B
:10309000110508F49BC0C80104978617970708F428
:1030A00095C002501109061B170B019311936D93E4
:1030B0007C93CF0122DF8AC05B01A01AB10A4C01C8
:1030C000800E911EA091CD06B091CE0640E050E05A
:1030D000E12CF12C109709F44AC0A815B905D1F5D7
:1030E0006D907C901197630182E0C80ED11CCA14C8
:1030F000DB0480F1A3014A195B096A0182E0C80E72
:10310000D11C1296BC9012971396AC91B5E0CB16D9
:10311000D10440F0B282A38351834083D9016D93DF
:103120007C930AC00E5F1F4FC301800F911FF901EE
:1031300091838083EB2DFA2FE114F10431F0D70154
:103140001396FC93EE93129741C0F093CE06E09352
:10315000CD063CC08D919C9111974817590708F4F2
:10316000AC017D0112960D90BC91A02DB3CF809142
:10317000CB069091CC0688159905E1F446175707C0
:10318000C8F48091070290910802009741F48DB72E
:103190009EB740910B0250910C02841B950BE817CF
:1031A000F907B0F4F093CC06E093CB06F9017183F4
:1031B00060830CC0CB010CDE7C01009749F0A801B4
:1031C000BE011BD0CE0199DEC70104C0CE0102C0F2
:1031D00080E090E0DF91CF911F910F91FF90EF90F1
:1031E000DF90CF90BF90AF909F908F907F906F9027
:1031F000089581E090E0F89410C0FB01DC0102C06A
:1032000001900D9241505040D8F70895FB01DC0128
:0E32100001900D920020E1F70895F894FFCF91
:10321E00090A02010203040000CF0680000000002C
:10322E0000AE015D0D4701F401780156016A0100FF
:10323E00000000300301035F03D502F902E502D658
:10324E00027374656170682F7265736375652D6C9A
:10325E00696E652F4F42520A0A003E204F62737408
:10326E0061636C65206465746563746564003E20FB
:10327E00446F75626C6520475245454E20646574F7
:10328E006563746564003E204C6566742047524544
:10329E00454E206465746563746564003E20526912
:1032AE0067687420475245454E20646574656374A3
:1032BE006564004E3030304E0031313131310031E5
:1032CE003131313000313131303000313131303146
:1032DE000031313030310031313031310031303068
:1032EE003131003130313131003030313131003057
:0832FE0031313131000D0A00ED
:020000023000CC
:10E000000D9489F10D94B2F10D94B2F10D94B2F129
:10E010000D94B2F10D94B2F10D94B2F10D94B2F1F0
:10E020000D94B2F10D94B2F10D94B2F10D94B2F1E0
:10E030000D94B2F10D94B2F10D94B2F10D94B2F1D0
:10E040000D94B2F10D94B2F10D94B2F10D94B2F1C0
:10E050000D94B2F10D94B2F10D94B2F10D94B2F1B0
:10E060000D94B2F10D94B2F10D94B2F10D94B2F1A0
:10E070000D94B2F10D94B2F10D94B2F10D94B2F190
:10E080000D94B2F10D94B2F10D94B2F10D94B2F180
:10E090000D94B2F10D94B2F10D94B2F10D94B2F170
:10E0A0000D94B2F10D94B2F10D94B2F10D94B2F160
:10E0B0000D94B2F10D94B2F10D94B2F10D94B2F150
:10E0C0000D94B2F10D94B2F10D94B2F10D94B2F140
:10E0D0000D94B2F10D94B2F10D94B2F10D94B2F130
:10E0E0000D94B2F141546D656761323536300041AF
:10E0F000726475696E6F206578706C6F72657220DE
:10E1000073746B3530305632206279204D4C530099
:10E11000426F6F746C6F616465723E004875683F52
:10E1200000436F6D70696C6564206F6E203D200048
:10E130004350552054797065202020203D20005FF9
:10E140005F4156525F415243485F5F3D2000415658
:10E1500052204C696243205665723D20004743437C
:10E160002056657273696F6E203D20004350552024
:10E1700049442020202020203D20004C6F7720663D
:10E18000757365202020203D20004869676820665F
:10E190007573652020203D200045787420667573D6
:10E1A00065202020203D20004C6F636B2066757336
:10E1B000652020203D20004D617220203720323024
:10E1C000313300312E362E3800342E332E350056A2
:10E1D00023202020414444522020206F7020636F70
:10E1E00064652020202020696E73747275637469E1
:10E1F0006F6E2061646472202020496E74657272B3
:10E20000757074006E6F20766563746F7200726A49
:10E210006D702020006A6D70200057686174207056
:10E220006F72743A00506F7274206E6F7420737541
:10E2300070706F72746564004D7573742062652030
:10E2400061206C6574746572002000577269747483
:10E25000696E672045450052656164696E672045B7
:10E26000450045452065727220636E743D00504F35
:10E27000525400303D5A65726F2061646472003FF1
:10E280003D43505520737461747300403D454550C3
:10E29000524F4D207465737400423D426C696E6B41
:10E2A000204C454400453D44756D70204545505215
:10E2B0004F4D00463D44756D7020464C415348001B
:10E2C000483D48656C70004C3D4C69737420492F83
:10E2D0004F20506F72747300513D51756974005234
:10E2E0003D44756D702052414D00563D73686F7707
:10E2F00020696E7465727275707420566563746FF0
:10E30000727300593D506F727420626C696E6B00BD
:10E310002A0011241FBECFEFD1E2DEBFCDBF01E046
:10E320000CBF12E0A0E0B2E0EEE1FDEF03E00BBFB6
:10E3300002C007900D92A030B107D9F712E0A0E01B
:10E34000B2E001C01D92AE30B107E1F70F9460F367
:10E350000D948DFE01E20EBF0FEF0DBF11241FBE05
:10E360000D9460F30D9400F020E030E040ED57E0B4
:10E3700005C0FA013197F1F72F5F3F4F2817390792
:10E38000C0F308959C01260F311DC901A0E0B0E043
:10E390002F5F3F4FABBFFC018791882361F08093D3
:10E3A000C6008091C00086FFFCCF8091C0008064D1
:10E3B0008093C000EACF08958DE08093C6008091DD
:10E3C000C00086FFFCCF8091C00080648093C000B5
:10E3D0008AE08093C6008091C00086FFFCCF8091C8
:10E3E000C00080648093C00008950F94C2F10F9420
:10E3F000DCF10895FC019081992359F09093C600B7
:10E400008091C00086FFFCCF8091C0008064809323
:10E41000C0003196992379F70895282F982F929567
:10E420009F70892F805D8A3308F0895F8093C600D2
:10E430008091C00086FFFCCF8091C00080648093F3
:10E44000C000822F8F70982F905D9A3308F0995FEB
:10E450009093C6008091C00086FFFCCF8091C000E1
:10E4600080648093C00008959C01FB01853691056E
:10E470001CF46330710594F0C90164E670E00F94F8
:10E480002EFE605D7F4F6093C6008091C00086FFC6
:10E49000FCCF8091C00080648093C0002B30310598
:10E4A00014F43297B4F0C90164E670E00F942EFEC4
:10E4B0006AE070E00F942EFE605D7F4F6093C600AF
:10E4C0008091C00086FFFCCF8091C0008064809363
:10E4D000C000C9016AE070E00F942EFEC0968093E0
:10E4E000C6008091C00086FFFCCF8091C000806490
:10E4F0008093C00008951F93182F8EE692EE60E07F
:10E500000F94C2F11093C6008091C00086FFFCCF2B
:10E510008091C00080648093C0000F94DCF11F9153
:10E5200008952F923F924F925F926F927F928F92B7
:10E530009F92AF92BF92CF92DF92EF92FF920F9392
:10E540001F93DF93CF93CDB7DEB762970FB6F894E2
:10E55000DEBF0FBECDBF382E622ECA01DB015C01CB
:10E560006D01772420E2222E2E010894411C511CBB
:10E570008BC081E0A81680E0B80681E0C80680E084
:10E58000D80628F0C601AA27BB270F940DF2BB2797
:10E59000AD2D9C2D8B2D0F940DF28A2D0F940DF225
:10E5A0002092C6008091C00086FFFCCF8091C00001
:10E5B00080648093C0009DE29093C6008091C0006B
:10E5C00086FFFCCF8091C00080648093C0002092C1
:10E5D000C6008091C00086FFFCCF8091C00080649F
:10E5E0008093C00019828601750188249924A1E0D6
:10E5F0003A1651F03A1620F0B2E03B1661F409C029
:10E600000BBFF701779007C0C7010F9477FE782EF4
:10E6100002C0F7017080872D0F940DF22092C60082
:10E620008091C00086FFFCCF8091C0008064809301
:10E63000C000872D8052F401EF70F0708F3520F408
:10E64000E40DF51D708204C0E40DF51D8EE280839B
:10E650000894E11CF11C011D111D0894811C911CE2
:10E6600090E18916910409F0C2CF80E190E0A0E02A
:10E67000B0E0A80EB91ECA1EDB1E198AC2010F9493
:10E68000FAF10F94DCF16A94662009F072CF629679
:10E690000FB6F894DEBF0FBECDBFCF91DF911F91B3
:10E6A0000F91FF90EF90DF90CF90BF90AF909F9031
:10E6B0008F907F906F905F904F903F902F90089534
:10E6C0002F923F924F925F926F927F928F929F9282
:10E6D000AF92BF92CF92DF92EF92FF920F931F9370
:10E6E000DF93CF93CDB7DEB7CD53D1400FB6F894BB
:10E6F000DEBF0FBECDBF01E20EBF0FEF0DBF94B75F
:10E70000F894A89514BE80916000886180936000A1
:10E7100010926000789493FF05C0E0910002F091A0
:10E7200001021995279A2F9A8091C00082608093E8
:10E73000C00080E18093C40088E18093C1000000A4
:10E74000EE24FF24870144E0A42EB12CCC24DD2448
:10E7500024C0C5010197F1F70894E11CF11C011DCB
:10E76000111D21E2E2162EE4F20620E0020720E06D
:10E77000120718F031E0C32ED12CC801B70127ECE5
:10E780003BE140E050E00F9441FE611571058105C9
:10E79000910519F485B1805885B98091C00087FD35
:10E7A00003C0C114D104A9F2A6014F5F5F4FC25E3E
:10E7B000DE4F59834883CE51D140C25EDE4F8881FF
:10E7C0009981CE51D140019711F00D9410FEC05D9A
:10E7D000DE4F19821882C053D14060E0C15DDE4F28
:10E7E0001882CF52D14088249924C35DDE4F19820C
:10E7F0001882CD52D140C05EDE4F188219821A8233
:10E800001B82C052D140CE5CDE4F188219821A8220
:10E810001B82C253D140EE24FF2487010BBFF701B6
:10E8200007911691C45CDE4F19830883CC53D14005
:10E830000D940BFEC25EDE4F28813981CE51D1404E
:10E840002130310509F52091C600C25EDE4F1982E4
:10E850001882CE51D14022C02F5F3F4F4F4F5F4FA4
:10E86000213082E138078AE7480780E0580780F0C6
:10E87000C45CDE4FE881F981CC53D140EF5FFF4F9C
:10E8800019F0EE27FF27099420E030E040E050E047
:10E890008091C00087FFE0CF2091C600C35DDE4FAE
:10E8A00048815981CD52D1404F5F5F4FC35DDE4FEC
:10E8B00059834883CD52D140213209F063C64A3092
:10E8C000510508F05FC60894811C911C53E0851621
:10E8D000910409F059C600E010E018C081E280936D
:10E8E000C6008091C00086FFFCCF8091C00080648C
:10E8F0008093C0002F5F3F4F2931310579F70F9486
:10E90000DCF10F5F1F4F0530110519F020E030E0FA
:10E91000E5CF10920A0210920B0210920C02109294
:10E920000D02109206021092070210920802109235
:10E930000902109202021092030210920402109235
:10E9400005028FEE90EE60E00F94F5F180E191EE1C
:10E9500060E00F94C2F18091C00087FFFCCF9091DE
:10E96000C600903608F09F759032B8F09093C600BC
:10E970008091C00086FFFCCF8091C00080648093AE
:10E98000C000A0E2A093C6008091C00086FFFCCF2B
:10E990008091C00080648093C000983409F4D7C18E
:10E9A0009934B8F4923409F459C1933458F490333B
:10E9B00019F1903308F4E3C59F33A1F1903409F0C5
:10E9C000DEC5BDC0953409F470C1963409F0D7C5D1
:10E9D00098C1923509F42BC2933538F49C3409F46C
:10E9E000F5C1913509F0CBC518C2963509F445C279
:10E9F000993509F0C4C567C483E792EE62E00F94CD
:10EA0000F5F110920602109207021092080210927D
:10EA1000090210920A0210920B0210920C0210923C
:10EA20000D0213C18FE792EE62E00F94F5F18FEEC5
:10EA300090EE60E00F94F5F181E291EE60E00F94CA
:10EA4000C2F187EB91EE60E00F94F5F180E391EE77
:10EA500060E00F94C2F184EE90EE60E00F94F5F167
:10EA60008FE391EE60E00F94C2F186E090E061E008
:10EA700070E00F9434F20F94DCF18DE591EE60E0DC
:10EA80000F94C2F189EC91EE60E00F94F5F18EE401
:10EA900091EE60E00F94C2F183EC91EE60E00F9490
:10EAA000F5F18CE691EE60E00F94C2F18EE10F94E7
:10EAB0000DF288E90F940DF281E00F940DF20F949E
:10EAC000DCF18BE791EE60E00F94C2F119E0E0E039
:10EAD000F0E010935700E4918E2F0F940DF20F94F5
:10EAE000DCF18AE891EE60E00F94C2F1E3E0F0E03F
:10EAF00010935700E4918E2F0F940DF20F94DCF1D8
:10EB000089E991EE60E00F94C2F1E2E0F0E0109349
:10EB10005700E4918E2F0F940DF20F94DCF188EAE8
:10EB200091EE60E00F94C2F1E1E0F0E01093570045
:10EB30001491812F0F940DF20F94DCF107CF8BE825
:10EB400092EE62E00F94F5F18BE492EE60E00F94A8
:10EB5000F5F10F94DCF100E010E019C0C8016F2D51
:10EB60000F947FFEFF2031F489E492EE60E00F9471
:10EB7000C2F10BC0F092C6008091C00086FFFCCFAE
:10EB80008091C00080648093C0000F5F1F4FC80158
:10EB900081519F41A0E0B0E0ABBFFC01F790BAE229
:10EBA000FB1621F0E2E000301E07C1F60F94DCF105
:10EBB0000F94DCF187E592EE60E00F94F5F10F948D
:10EBC000DCF1CC24DD2400E010E01EC0C8010F946D
:10EBD00077FEF82E882331F489E492EE60E00F94FA
:10EBE000C2F10BC08093C6008091C00086FFFCCFAD
:10EBF0008091C00080648093C000FE1419F00894D6
:10EC0000C11CD11C0F5F1F4FC80181519F41A0E063
:10EC1000B0E0ABBFFC01E790FAE2EF1621F022E092
:10EC20000030120799F60F94DCF10F94DCF182E6C4
:10EC300092EE60E00F94C2F1C60161E070E00F94C3
:10EC400034F20F94DCF10F94DCF110920202109276
:10EC50000302109204021092050278CE89E992EE26
:10EC600062E00F94F5F1279A2F9A16C02F9880E052
:10EC700090E0E0EDF7E03197F1F7019684369105E9
:10EC8000C1F72F9A80E090E0E0EDF7E03197F1F7DF
:10EC9000019684369105C1F78091C00087FFE6CFC9
:10ECA0008091C00087FFFCCF64C485EA92EE62E0E9
:10ECB0000F94F5F140910202509103026091040219
:10ECC0007091050281E020E10F9491F2809102029F
:10ECD00090910302A0910402B091050280509F4FD1
:10ECE000AF4FBF4F8093020290930302A0930402A0
:10ECF000B093050280509041A040B04008F426CE69
:10ED0000A4CF83EB92EE62E00F94F5F140910602FE
:10ED100050910702609108027091090280E020E1A1
:10ED20000F9491F28091060290910702A09108023F
:10ED3000B091090280509F4FAF4FBF4F80930602A2
:10ED400090930702A0930802B0930902FFCD80ECD4
:10ED500092EE62E00F94F5F183E792EE60E00F949B
:10ED6000F5F18FE792EE60E00F94F5F18BE892EE0B
:10ED700060E00F94F5F189E992EE60E00F94F5F10F
:10ED800085EA92EE60E00F94F5F183EB92EE60E09D
:10ED90000F94F5F180EC92EE60E00F94F5F187ECC2
:10EDA00092EE60E00F94F5F188ED92EE60E00F9442
:10EDB000F5F18FED92EE60E00F94F5F18AEE92EEB0
:10EDC00060E00F94F5F183E093EEBDCD87EC92EE19
:10EDD00062E00F94F5F181E40F947BF282E40F94EA
:10EDE0007BF283E40F947BF284E40F947BF285E45E
:10EDF0000F947BF286E40F947BF287E40F947BF20E
:10EE000088E40F947BF28AE40F947BF28BE40F94F6
:10EE10007BF28CE40F947BF299CD88ED92EE62E068
:10EE20000F94F5F1772473948824992409C48FED05
:10EE300092EE62E00F94F5F140910A0250910B02BC
:10EE400060910C0270910D0282E020E10F9491F22A
:10EE500080910A0290910B02A0910C02B0910D02D8
:10EE600080509F4FAF4FBF4F80930A0290930B0289
:10EE7000A0930C02B0930D0269CD8AEE92EE62E08F
:10EE80000F94F5F184EE90EE60E00F94F5F18FECC5
:10EE900091EE60E00F94F5F1662477244301CC5D98
:10EEA000DE4F19821882C452D140D401C301B695F5
:10EEB000A79597958795CA5DDE4F88839983AA8326
:10EEC000BB83C652D140CC5DDE4FA881B981C4520C
:10EED000D1401196CC5DDE4FB983A883C452D14096
:10EEE000CD0162E070E00F9434F2B0E2B093C6005E
:10EEF0008091C00086FFFCCF8091C0008064809329
:10EF0000C000EDE2E093C6008091C00086FFFCCF18
:10EF10008091C00080648093C000F0E2F093C6004E
:10EF20008091C00086FFFCCF8091C00080648093F8
:10EF3000C000CA5DDE4FE880F9800A811B81C6529D
:10EF4000D140BB27A12F902F8F2D0F940DF2CA5DBA
:10EF5000DE4F8881C652D1400F940DF2B0E2FB2EF5
:10EF6000F092C6008091C00086FFFCCF8091C00067
:10EF700080648093C0000DE30093C6008091C000C0
:10EF800086FFFCCF8091C00080648093C00010E2B7
:10EF90001093C6008091C00086FFFCCF8091C00016
:10EFA00080648093C0008BBEF3012791C65DDE4F65
:10EFB0002883CA52D140A22EBB24CC24DD2408943D
:10EFC000611C711C811C911C8BBEF3018791282E42
:10EFD0003324442455240894611C711C811C911C09
:10EFE0008BBEF3013791C55DDE4F3883CB52D140E4
:10EFF0000894611C711C811C911C8BBEF30147910C
:10F00000C45DDE4F4883CC52D140ADEFEA2EAFEF66
:10F01000FA2EAFEF0A2FAFEF1A2F6E0C7F1C801E57
:10F02000911E142D032DF22CEE24EA0CFB1C0C1D5A
:10F030001D1D0F940DF220E22093C6008091C000A8
:10F0400086FFFCCF8091C00080648093C000C65DC5
:10F05000DE4F8881CA52D1400F940DF230E23093D6
:10F06000C6008091C00086FFFCCF8091C000806404
:10F070008093C000C45DDE4F8881CC52D1400F9494
:10F080000DF240E24093C6008091C00086FFFCCFA5
:10F090008091C00080648093C000C55DDE4F888190
:10F0A000CB52D1400F940DF250E25093C6008091A4
:10F0B000C00086FFFCCF8091C00080648093C000B8
:10F0C0008FEFE8168FEFF80680E0080780E018075A
:10F0D00031F484E092EE60E00F94C2F1DFC0D80119
:10F0E000C7018070907CA070B0708050904CA040A0
:10F0F000B040D1F52FEF3FE340E050E0E222F322B1
:10F1000004231523CA5DDE4FA880B980CA80DB8046
:10F11000C652D140AE0CBF1CC01ED11EAA0CBB1CD7
:10F12000CC1CDD1C8EE092EE60E00F94C2F1BB2798
:10F13000A12F902F8F2D0F940DF28E2D0F940DF285
:10F1400030E23093C6008091C00086FFFCCF8091F2
:10F15000C00080648093C0004EE34093C60080915D
:10F16000C00086FFFCCF87C08EE09EEFA0E0B0E03D
:10F17000E822F9220A231B239CE0E91694E9F90608
:10F1800090E0090790E0190709F088C0C45DDE4FE0
:10F19000A881CC52D140EA2EFF2400E010E0102FCD
:10F1A0000F2DFE2CEE24C55DDE4FB881CB52D14031
:10F1B000EB0EF11C011D111DD601C501817090706F
:10F1C000A070B070DC0199278827E80EF91E0A1F8D
:10F1D0001B1F20EF30E040E050E0A222B322C42207
:10F1E000D52241E1AA0CBB1CCC1CDD1C4A95D1F7F1
:10F1F000EA0CFB1C0C1D1D1D81E090E0A0E0B0E0BE
:10F20000282239224A225B2235E1220C331C441C7D
:10F21000551C3A95D1F7E20CF31C041D151D57013E
:10F220006801AA0CBB1CCC1CDD1C85E192EE60E0E1
:10F230000F94C2F1C801AA27BB270F940DF2BB2778
:10F24000A12F902F8F2D0F940DF28E2D0F940DF274
:10F2500090E29093C6008091C00086FFFCCF809121
:10F26000C00080648093C000AEE3A093C60080918C
:10F27000C00086FFFCCF8091C00080648093C000F6
:10F28000C601AA27BB270F940DF2BB27AD2D9C2DDD
:10F290008B2D0F940DF28A2D0F940DF20F94DCF14B
:10F2A000CC5DDE4FE881F981C452D140F99709F471
:10F2B0004DCBF4E0EF2EF12C012D112D6E0C7F1CA7
:10F2C000801E911EF2CD83E093EE62E00F94F5F183
:10F2D0008AE192EE60E00F94C2F18091C00087FF56
:10F2E000FCCF1091C6001F751093C6008091C0001E
:10F2F00086FFFCCF8091C00080648093C0000F9493
:10F30000DCF1812F81548A3108F036C1163409F4BA
:10F3100095C0173490F4133409F44EC0143430F40B
:10F320001134F1F0123409F01DC130C0143409F465
:10F3300059C0153409F016C16BC01A3409F4C4C0A1
:10F340001B3438F4173409F48FC0183409F00AC19B
:10F35000A1C01B3409F4D2C01C3409F003C1E8C0B9
:10F360008FEF81B90DC082B1809582B980E090E0C5
:10F37000E0EDF7E03197F1F70196883C9105C1F790
:10F380008091C00087FFEFCF12B8EFC08FEF84B934
:10F390000DC085B1809585B980E090E0E0EDF7E0A3
:10F3A0003197F1F70196883C9105C1F78091C00033
:10F3B00087FFEFCF15B8D9C08FEF87B90DC088B1DF
:10F3C000809588B980E090E0E0EDF7E03197F1F7C3
:10F3D0000196883C9105C1F78091C00087FFEFCF6F
:10F3E00018B8C3C08FEF8AB90DC08BB180958BB9A7
:10F3F00080E090E0E0EDF7E03197F1F70196883C8E
:10F400009105C1F78091C00087FFEFCF1BB8ADC059
:10F410008FEF8DB90DC08EB180958EB980E090E0F0
:10F42000E0EDF7E03197F1F70196883C9105C1F7DF
:10F430008091C00087FFEFCF1EB897C08FEF80BBD1
:10F440000DC081B3809581BB80E090E0E0EDF7E0F6
:10F450003197F1F70196883C9105C1F78091C00082
:10F4600087FFEFCF11BA81C08FEF83BB0DC084B38C
:10F47000809584BB80E090E0E0EDF7E03197F1F714
:10F480000196883C9105C1F78091C00087FFEFCFBE
:10F4900014BA6BC08FEF809301010FC080910201FD
:10F4A00080958093020180E090E0E0EDF7E03197F5
:10F4B000F1F70196883C9105C1F78091C00087FF64
:10F4C000EDCF1092020151C08FEF809304010FC065
:10F4D0008091050180958093050180E090E0E0ED4A
:10F4E000F7E03197F1F70196883C9105C1F78091DB
:10F4F000C00087FFEDCF1092050137C08FEF8093DA
:10F5000007010FC08091080180958093080180E079
:10F5100090E0E0EDF7E03197F1F70196883C910536
:10F52000C1F78091C00087FFEDCF109208011DC088
:10F530008FEF80930A010FC080910B01809580931B
:10F540000B0180E090E0E0EDF7E03197F1F70196F4
:10F55000883C9105C1F78091C00087FFEDCF1092E4
:10F560000B0103C085E292EEEEC98091C00087FFD7
:10F57000FCCF8091C600EAC988E392EEE4C98CE131
:10F5800091EEE1C988249924933011F1943028F444
:10F59000913089F09230B8F408C0953061F195301F
:10F5A000F0F0963009F048C043C02B3109F042C951
:10F5B00091E06BE13FC96227C15DDE4F2883CF52E6
:10F5C000D14092E037C9B22FA0E0622793E032C960
:10F5D000822F90E0A82BB92B622794E02BC92E3004
:10F5E00009F039C3622795E0C05DDE4F19821882A9
:10F5F000C053D1401FC9E1E0F0E0EC0FFD1FC05D3A
:10F60000DE4F08811981C053D140E00FF11F2083E4
:10F610000F5F1F4FC05DDE4F19830883C053D14079
:10F6200062270A171B0709F005C9D80196E002C92D
:10F63000261709F010C303C0973009F0FBC87724E0
:10F640009981933109F412C19431C8F4963009F4C8
:10F65000D8C0973050F4923009F406C1933009F4C1
:10F660006DC0913009F059C253C0913109F477C08F
:10F67000923108F0BBC0903109F04FC2F5C098310B
:10F6800009F487C0993150F4953109F4EFC09531F0
:10F6900008F4C6C1963109F040C2C2C19A3109F4DA
:10F6A0006CC09A3108F491C09B3109F45BC09D3164
:10F6B00009F033C29D81903359F48F81882311F46E
:10F6C0009EE11CC0813011F091E018C098E916C08D
:10F6D000892F807591F0903539F4E0E0F0E089E011
:10F6E0008093570094910AC0983539F4E3E0F0E034
:10F6F00089E080935700949101C090E01A821B82A8
:10F700008D818C831D829E831F8227E030E009C299
:10F710001A8288E08B8381E48C8386E58D8382E581
:10F720008E8389E48F8383E5888780E589878FE5E9
:10F730008A8782E38B872BE030E0F3C18A818139AD
:10F7400041F0823941F0803911F48FE005C080E04A
:10F7500003C082E001C08AE01A828B8344C0772410
:10F76000739482C08D81882311F48EE12CC0813086
:10F7700011F081E028C088E926C01A82E1E0F0E0BB
:10F7800089E08093570084918B831C8224E030E0D1
:10F79000C8C18B81803589F48C81883039F4E2E0EE
:10F7A000F0E089E08093570084910DC0E0E0F0E044
:10F7B00089E080935700849106C0E3E0F0E089E09F
:10F7C0008093570084911A82DFCF8D81836C99E0FA
:10F7D000E1E0F0E0082E90935700E89507B600FCB2
:10F7E000FDCF1A821B8223E030E09BC180EC8A832C
:10F7F000CE5CDE4F188219821A821B82C253D1401E
:10F800008EC18A8190E0A0E0B0E0582F44273327D2
:10F8100022278B8190E0A0E0B0E0DC0199278827C7
:10F82000282B392B4A2B5B2B8D8190E0A0E0B0E098
:10F83000282B392B4A2B5B2B8C8190E0A0E0B0E089
:10F84000BA2FA92F982F8827282B392B4A2B5B2BCF
:10F85000220F331F441F551FC05EDE4F288339839C
:10F860004A835B83C052D1401A8259C13A81C95C34
:10F87000DE4F3883C753D140CA5CDE4F1882C6536F
:10F88000D1408B81C82EDD24CA5CDE4F488159816E
:10F89000C653D140C42AD52A933109F082C0CE5C28
:10F8A000DE4F88819981AA81BB81C253D1408050AB
:10F8B000904CA340B04030F583E0CE5CDE4FE88052
:10F8C000F9800A811B81C253D140F70100935B008C
:10F8D00080935700E89507B600FCFDCFCE5CDE4F65
:10F8E000088119812A813B81C253D14000501F4FAA
:10F8F0002F4F3F4FCE5CDE4F088319832A833B8313
:10F90000C253D140C05EDE4F488159816A817B81FC
:10F91000C052D140DE011B9631E08C9111962C91A2
:10F9200011971296C75CDE4F2883C953D140C85C3B
:10F93000DE4F1882C853D14090E0C85CDE4FE881AA
:10F94000F981C853D1408E2B9F2B0C01FA01609393
:10F950005B0030935700E89511244E5F5F4F6F4F67
:10F960007F4F0EEFE02E0FEFF02ECE0CDF1CC114F8
:10F97000D10499F685E0C05EDE4F088119812A81A5
:10F980003B81C052D140F80120935B008093570027
:10F99000E89507B600FCFDCF81E180935700E8951C
:10F9A00035C0C05EDE4F88819981AA81BB81C0527B
:10F9B000D140B695A795979587957C018601ABE0D8
:10F9C000AA2EB12CAC0EBD1E0BC0D5016D915D01F0
:10F9D000C7010F947FFE0894E11CF11C01501040F8
:10F9E0000115110591F7A60160E070E0440F551F65
:10F9F000661F771FC05EDE4FE880F9800A811B8199
:10FA0000C052D1404E0D5F1D601F711F1A82C05E33
:10FA1000DE4F488359836A837B83C052D1407FC0C5
:10FA2000FA80C55CDE4FF882CB53D140C65CDE4F16
:10FA30001882CA53D1408B81C82EDD24C65CDE4FAC
:10FA400008811981CA53D140C02AD12A1A828981DA
:10FA5000BE016D5F7F4F843121F59601C05EDE4FA0
:10FA6000E880F9800A811B81C052D1400BBFF701A9
:10FA700087919691DB018C9311969C936E5F7F4FDB
:10FA8000D801C7010296A11DB11DC05EDE4F88835B
:10FA90009983AA83BB83C052D14022503040F1F6F3
:10FAA00036C0C05EDE4F288139814A815B81C052F9
:10FAB000D1400894C108D108760100E010E0089414
:10FAC000C11CD11C0894E11CF11C011D111DE20E8A
:10FAD000F31E041F151F21BDBB27A52F942F832FB5
:10FAE00082BD2F5F3F4F4F4F5F4FF89A80B5DB01CC
:10FAF0008D93BD012E153F054007510761F7C05E8C
:10FB0000DE4F288339834A835B83C052D1409601FC
:10FB10002D5F3F4FFB01108204C080EC8A8322E0FE
:10FB200030E08BE18093C6008091C00086FFFCCF5F
:10FB30008091C00080648093C000C15DDE4FF88179
:10FB4000CF52D140F093C6008091C00086FFFCCF19
:10FB50008091C00080648093C000432F3093C60022
:10FB60008091C00086FFFCCF8091C00080648093AC
:10FB7000C000922F2093C6008091C00086FFFCCF6A
:10FB80008091C00080648093C0008EE08093C600A6
:10FB90008091C00086FFFCCF8091C000806480937C
:10FBA000C00065E1C15DDE4FE880CF52D1406E25D7
:10FBB00069276427FE01319610C090819093C6009A
:10FBC0008091C00086FFFCCF31968091C000806498
:10FBD0008093C0006927215030402115310569F715
:10FBE0006093C6008091C00086FFFCCF8091C0006A
:10FBF00080648093C00085B1805885B9772081F4F6
:10FC0000C15DDE4F0881CF52D1400F5FC15DDE4F35
:10FC10000883CF52D14090E0A0E0B0E00D941AF4F8
:10FC200027982F9880E090E020ED37E0F901319798
:10FC3000F1F7019684369105C9F700008091C00064
:10FC40008D7F8093C00081E180935700E895EE2777
:10FC5000FF270994FFCF90E00D941AF497FB092E2B
:10FC600007260AD077FD04D02ED006D000201AF443
:10FC7000709561957F4F0895F6F7909581959F4F08
:10FC80000895A1E21A2EAA1BBB1BFD010DC0AA1FDD
:10FC9000BB1FEE1FFF1FA217B307E407F50720F0F5
:10FCA000A21BB30BE40BF50B661F771F881F991F70
:10FCB0001A9469F760957095809590959B01AC01B9
:10FCC000BD01CF010895AA1BBB1B51E107C0AA1FAC
:10FCD000BB1FA617B70710F0A61BB70B881F991FED
:10FCE0005A95A9F780959095BC01CD010895F99991
:10FCF000FECF92BD81BDF89A992780B50895262F31
:10FD0000F999FECF1FBA92BD81BD20BD0FB6F89400
:0EFD1000FA9AF99A0FBE01960895F894FFCF63
:040000033000E000E9
:00000001FF